S013000049276D20736F206C6F73742E7372656350
S1130000F009002025010000210100002101000069
S113001000000000000000000000000000000000DC
S113002000000000000000000000000021010000AA
S11300300000000000000000210100002101000078
S11300402101000021010000210100002101000024
S11300502101000021010000210100008D15000094
S11300602101000021010000210100002101000004
S11300702101000000000000000000002101000038
S113008021010000210100002101000021010000E4
S11300902101000000000000000000002101000018
S11300A021010000210100002101000021010000C4
S11300B00000000010B5064C2378002B07D1054B37
S11300C0002B02D0044800E000BF0123237010BDC0
S11300D0E001002000000000FC2F0000084B10B5D8
S11300E0002B03D00749084800E000BF0748036815
S11300F0002B00D110BD064B002BFBD09847F9E72D
S113010000000000E4010020FC2F0000FC2F000090
S11301100000000010B5014B984710BDD502000047
S1130120FEE70000F8B52A4A2A4B9A4211D01A0079
S1130130294B9A420DD2294A03339B1A9B08013357
S11301409B000022234822498C58845004329A424E
S1130150FAD1234A234B9A420AD2D34321495B184A
S113016003218B4304339B18002102C29342FCD128
S11301701D4AFF211D4B8B439360FD3990235B0087
S11301801B4AD1501B4AD3780325AB430224234393
S1130190D370D3780C27BB4308263343D370164B54
S11301A0987B30229043202210439873997BB94363
S11301B0314399739A7BAA4322439A730F4A536833
S11301C080210B4353600E4B98470E4B9847FEE734
S11301D0FC2F000000000020E001002004000020AB
S11301E0E0010020EC05002000ED00E0000000002C
S11301F000700041005000410048004100400041AF
S1130200F9200000C9170000F0B5C64600B5C024A7
S1130210E40580225204A2601A4B8027FF059F62E6
S11302201949996262615820195C042290469143ED
S11302301954195C0126B14301252943C9B2195443
S11302401C38195C0B329143093A1143195480212B
S11302508904A1609F620D4F9F62616159215C5CBA
S1130260424694435C545A5CB2432A43D2B25A5431
S11302701A5C4A390A4051310A431A5404BC904664
S1130280F0BDC04600440041000100C0000200C0AF
S1130290064BDA6920210A43DA615A6920310A439C
S11302A05A61034A034B5A807047C0460004004019
S11302B006400000000C004010B5034B9847034B68
S11302C09847034B984710BD91020000C5060000F3
S11302D009020000F8B5404B9847C022D20501211D
S11302E0516191603D4B3E489862C020000698627F
S11302F040255C5D8C435C55022454619460394C08
S11303009C62986241269C5D8C439C5504245461F4
S11303109460354E9E6298624227DE5D8E43DE55C0
S1130320082656619660314E9E6298620137DE5D02
S11303308E43DE551026566196602D4E9E6298625D
S11303400137DE5D8E43DE55202656619660294EC8
S11303509E6298620137DE5D8E43DE55556195607D
S1130360254D9D62986246269D5D8D439D55802551
S113037055619560214D9D62986201369D5D8D4366
S11303809D5580256D00556195601D4D9D62986257
S11303904825585D8843585580208000506019488E
S11303A098621948986249201D5CA5431D541D5C40
S11303B08D431D54802040025060144A9A62144AAE
S11303C09A625022985CA0439854985C884398544D
S11303D0104B9847F8BDC046E908000000440041AE
S11303E001000040020000400400004008000040FA
S11303F01000004020000040400000408000004009
S11304000001004000020240000002C0000002405F
S1130410010002C0B9020000EFF31083036072B65A
S1130420BFF35F8F7047BFF35F8F036883F3108858
S11304307047000010B5044B1C68044B984701003A
S11304402000034B984710BDFC010020C5080000A4
S1130450E1080000F0B504000E4B5A78904217D022
S1130460002300200B4F0F2626403D0008E00130FA
S113047040B204280AD02033EA185278A24206D0A7
S1130480D95D0029F3D19642F1D100E00538F0BDE1
S11304900020FCE7000200200020704770B5040033
S11304A00D000A4B98474201094B9B189A78002388
S11304B0032A01D0180070BD4001054B1818836948
S11304C02900200098470300F4E7C04655040000C3
S11304D000020020F0B585B005000F001600514B56
S11304E098470400002F62D14F4B42019918002015
S11304F0C870D35C002B0ED062014B4B9B180122B9
S11305009A706401484B1C19E178E36932002800B1
S1130510984705B0F0BD8B78032B0CD0424B620199
S11305200C329A1864011C1960780021E369984719
S11305300223A370EDE73C4A0B000C254D576101E3
S11305400C3152185878DB6901219847002817D0DC
S11305506201354B9B1805229A70033ADA70002D1C
S113056009DB6401304B1C19607880231843012196
S11305702E4B9847CDE764012B4B1C196078F6E7A6
S11305806401294B1C190423A3706378002201928F
S11305900292002D08DB8032134301A80372012369
S11305A04372234B9847B4E70F221340F5E7012F1A
S11305B00AD0022F1DD0032F2CD042011A4B9B18B6
S11305C006229A70DA709CE7174B420199180220B0
S11305D0C870D35C002B05D06201134B9B18052215
S11305E09A708EE702228A70002128000F4B9847E8
S11305F087E70D4B420199180420C870D35C002B87
S113060005D06201084B9B1801229A7079E70223F6
S11306108B707EE74201044B9B1800229A700532CE
S1130620DA706EE755040000000200207511000026
S113063049130000F0B5C64600B504001D4B9847A9
S1130640060045010C351C4B5D19290020001B4B8D
S11306509847C0B208280AD001212000184DA847A5
S1130660802020430121A84704BC9046F0BD00210E
S11306702000134B984698478027274300213800D1
S1130680C04772010C4B9B1801229A705B692900C8
S1130690200098470028E7D17601074B9E190523CF
S11306A0B37001212000064CA04701213800A04767
S11306B0DAE7C0465504000000020020D912000009
S11306C07511000010B5104B984700281BDB0F4C28
S11306D08022002120000E4B984723008034FF2104
S11306E00C4A59705A619A61DA612033A342F8D1F5
S11306F009490020094CA04709490120A04709499C
S11307000220A047002010BD991000000002002024
S11307105321000099040000350600005D15000017
S11307209D040000D5040000F0B5D6464F46464669
S1130730C0B586B00400077A3800404B98470500DE
S1130740667A63689846002800DA71E004A83C4B96
S113075098476A013B4B9B189A7817236B441A708D
S11307601B78012B10D004A8374B984717236B44F0
S11307701B78DBB2052B5ED0062B23D00120002B87
S11307803CD11320404239E02E4B99466B019A46E6
S11307904B46534403229A7004A82B4B98474B466C
S11307A05246D35C002B10D0237A721E9641F6B2C7
S11307B022680192424602927FB2002F17DB0F2279
S11307C0134016E01020404218E06B011D4AD21875
S11307D0D17C0902937C5B189BB2002B14D10423B7
S11307E0937000220126237A2168019102928022CB
S11307F0134301A803724672144B984706B01CBCFD
S113080090469946A246F0BD42469A4200D91A0043
S11308106D010C494D19297B7F2905D8237A21685C
S1130820019102920026CAE79A42B6417642DAE77B
S113083012204042E2E70220E0E7C04655040000EF
S113084019040000000200202704000049130000DE
S113085070B50D0014000F4B98470300221E08D0FA
S1130860002B05DB012D0BD0002D04D0022D0CD064
S113087070BD094AF4E74001084B18184261F7E7D4
S11308804001064B18188261F2E74001034B181827
S1130890C261EDE755040000990400000002002045
S11308A00300064A1268002A04D0044A1068C318D8
S11308B0136070470249014A1160F6E78002002084
S11308C0F009002010B50301181A40010230032179
S11308D0024B98476423584310BDC046E11F0000F3
S11308E00139FDD87047000010B5084A5368022149
S11308F00B435360064B9847064B98470220064C1F
S1130900A047064B9847FD20A04710BD004000417A
S11309106109000081090000210900009909000013
S1130920C30709D50B4B802252009A600A4A5A60C9
S11309301A005378DB09FCD1830709D5054B022241
S1130940FF329A60054A5A601A005378DB09FCD1D9
S11309507047C046000C004000070100010301007D
S1130960064B1A7AD2B21A725A7AD2B25A729A7A56
S1130970D2B29A72DA7AD2B2DA72704700040040C4
S1130980044B9A6902210A439A611A7F1D310A4075
S11309901A777047000800408222D2011D4B5A800A
S11309A002221D4B9A8419000E32CB681A42FCD0E5
S11309B01A4A194BDA621A4B1B689B0E3F2B1FD045
S11309C09B02802292001343134A9362062393846A
S11309D0938C5B0717D51100D022CB681340D02B22
S11309E0FBD10D4A938C80210B439384094A53789D
S11309F0DB09FCD1084A936902218B439361704758
S1130A00FC23DB01E0E704491022CB681A42FCD046
S1130A10E7E7C046000C004000080040B9050104A7
S1130A20246080000020704770B5837C0F2213403F
S1130A30C17C083A0A40012A0BD05A0119498C4654
S1130A4062441021D1715B01174A944663441970C2
S1130A5070BD4A060ED5C27C40218A43C2745A0135
S1130A60124CA44662448025822464001555062451
S1130A70FF341155C27C08218A43C2740C495A01BF
S1130A808C180025A572A5761300064CA446634471
S1130A906F24DC71044B9C4662441470807C8B6E22
S1130AA09847D5E7005100410851004100500041EA
S1130AB08402002010B520228A40D2B2817C0F2308
S1130AC00B405B0105498C4663441A708268807C44
S1130AD0034B1B6F0121984710BDC04608510041CC
S1130AE08402002010B5837CFF2B02D0C27C520606
S1130AF000D410BDC27C4024A243C2748268024860
S1130B00046F1800A047F4E78402002030B583B0D6
S1130B10837C01AC2525257025356570FF2B1BD002
S1130B20C47C640618D50F242340002916D05C0128
S1130B300E4DAC4664448025257101AC645C5901BA
S1130B400A4DAC466144CC715B0109498C4663444F
S1130B501C701100074B984703B030BD5C01034D76
S1130B60AC46644440256571E7E7C0460051004146
S1130B7008510041E50A000070B582B0837C0F2261
S1130B80134001AA04241470043454705D01002934
S1130B9031D01A0008325201324C145D6406640FDD
S1130BA00A015219304DAA18957AEDB2022C2AD0B6
S1130BB0AC0741D5C57C947A0226B443947201AA49
S1130BC0545C5A01294EB4466244D4715B01284AEC
S1130BD0944663441C7007232B40012B3FD1C37CF4
S1130BE05B063CD5C37CDB09994238D0002219004E
S1130BF0204B984733E01A0008325201194C145D17
S1130C0007221440CCE7EC07D2D5947A0125AC43F3
S1130C10947201AA545C5A01144DAC466244D471D6
S1130C205B01134A944663441C704B1E9941C9B23C
S1130C300422104B984712E05A00521812010A4835
S1130C4082180020907201AA515C5A010748844618
S1130C506244D1715B01064A94466344197002B040
S1130C6070BDC04600500041840200200051004184
S1130C70085100410D0B0000F0B5C64600B50C4DFF
S1130C802C0074342935FF350A4B9846FF2700267B
S1130C9003212000C047A774E6741434AC42F7D192
S1130CA0602200210248044B984704BC9046F0BDE2
S1130CB084020020E50A000053210000F0B5C64676
S1130CC000B504000E00837C0F251D40002900D1CF
S1130CD0AAE06A015A4B9B1858698004800C238A45
S1130CE0584A934200D19AE0013B9AB2E37C072729
S1130CF01F40002E05D06B0153498C4663440221EA
S1130D00D971A368C118A160636899424AD25B1A79
S1130D109BB2E27C920635D5228A101C92B29A428A
S1130D2000D9181C83B2984623689C466144424605
S1130D30E068464B9847E1686A01414B9B1819618A
S1130D406A013F4B9B185A6941468904890C920BEE
S1130D5092030A435A615A693D490A405A61002E76
S1130D6007D1012F59D04A226B013A498C4663447A
S1130D701A706D01344B9C46654480236B7104BC2E
S1130D809046F0BD1A1C80208001834201D9324B69
S1130D901A8893B29846236859186A01284B9B18FD
S1130DA01961CDE7E37CDB060FD5E37C1022934386
S1130DB0E3746A01224B9B185A69920B92035A619D
S1130DC05A6923490A405A61C9E7012F0ED06D01BF
S1130DD0224B9C4665444A232B70218A024091424F
S1130DE00BD0002120001E4B9847C8E76D011B4B18
S1130DF09C4665444B232B70EFE7E37C40229343EE
S1130E00E374A07C0E4BDB6EA16898470028B6D132
S1130E10E37C40221343E374E3E74E22A4E7E77C38
S1130E2007231F40074A66E7038A064A00209342C5
S1130E3000D059E7E37C07271F400020014A60E700
S1130E4084020020FF030000005100414121000002
S1130E50FF3F00F009510041882B00000851004178
S1130E60E50A0000F8B5DE4657464E464546E0B56D
S1130E7004008846837C0F251D40002957D06A0151
S1130E807D4B9B185A681201920C92465F68BF040E
S1130E90BF0CBB46068A794B9E4200D1CDE0013E91
S1130EA0B6B25F463740E37C07221A409146434678
S1130EB0002B05D06B01724A944663440122DA7117
S1130EC0E37C9B060FD56368002B39D0A0681B1AFE
S1130ED09BB2226894466044E1681A00BB4200D980
S1130EE03A00684B98476368002B29D04246002A91
S1130EF042D0228ABA423FD9E37C10229343E3745E
S1130F00A3685B44A3604B46012B00D187E06B01CF
S1130F105D4A9446634425221A70002D02D1564B33
S1130F20E2681A6000212000584B984759E0068A6D
S1130F30524B9E4200D18EE000239B469A46AEE778
S1130F40E37CDB0600D47FE0E37C10229343202281
S1130F501343E374484A6B01E1689950218AD3181A
S1130F605A68890409094A4802400A435A605A687F
S1130F70920B92035A6022E0A2685244A260934208
S1130F80C1D99B1A9BB2E17C890630D5228A111CF7
S1130F9092B29A4200D9191C8BB2E0686A013649B0
S1130FA050506A01344989184A689B041B0938481F
S1130FB0024013434B604B689B0B9B034B604346BF
S1130FC0002B08D125224B46012B2FD06B01314930
S1130FD08C4663441A706D01294B9C46654440233A
S1130FE02B713CBC90469946A246AB46F8BD218A7B
S1130FF08B420AD9802189018B420DD8B3432168E1
S11310008A1869011C480A50CBE78B42F7D2E17C6D
S113101020200143E174F2E780239B01EFE76B0199
S1131020194A944663442D221A7076E76A01124BDA
S11310309B1800229A762D32C8E7BF05BF0DC37CEA
S113104007221A40914635E74346002B0CD1A3688A
S11310505344A36057E7C37C07221A4091460027F4
S113106000239B469A462BE7238ABB4200D943E7D9
S1131070A3685344A36046E784020020FF030000F2
S1131080005100414121000008510041E50A0000DF
S1131090FF3F00F00951004110B5314B9B78DB074D
S11310A01FD42F4903228B781342FCD12C4B1B787D
S11310B09B070ED52A4A137802218B431370110023
S11310C003228B781342FCD1254902228B781342E8
S11310D0FCD10122224B1A70190002328B78134280
S11310E0FCD11F4901228B781342FCD11D4B1E4AAF
S11310F01A665A669A66DA661A671C4B98471C4B3E
S11311001B685A0B1F210A40980C01409B015B0F7E
S11311101F2A1FD01F291FD0072B1FD092010A435B
S11311201B0313430E4A1385D37803210B43D37057
S1131130D3780C210B43D3700423137011000322C2
S11311408B781342FCD1064B064A5A6201221A815B
S1131150002010BD1A3ADDE70239DDE7023BDDE786
S11311600050004184020020250A0000790C000090
S113117024608000F0B50F23034040B2C40F002B5D
S113118009D01A00002804DB022B05D912204042A2
S113119019E09A1CF8E70022012915D0002936D05D
S11311A093009B189B00474AD218863212780F236B
S11311B013405B01444A9446634498791023A34046
S11311C01840431E9841F0BD1025A540EDB23D499D
S11311D0900083189B00CB1886331E780F2333406E
S11311E05E01394FBC46664475712025A540ECB2BA
S11311F05B01364DAC4663441C70821892008A1819
S11312008032D37908210B43D3710020DBE79300AC
S11312109B1899002B4B5B1886331B780F210B40CE
S11312205D012B498C466544832149006E5CF63987
S1131230A14000200E42C6D0C9B20530FF30295467
S11312402021A140C8B25B01224EB4466344187009
S11312500823FF33EB5C0B4209D00823FF33E85427
S1131260073BFF3BA340DBB2822149006B54930050
S11312709B189900134B5B188033D97907230B40D3
S1131280012B0BD093009A1892000E4B9B188033BD
S1131290DA7908218A43DA71002094E70633FF33B0
S11312A0E95CD63B0020194200D08CE793009A18E1
S11312B09200044B9B188033DA7908218A43DA714F
S11312C081E7C046840200200051004109510041D9
S11312D0005000410851004170B50D000F23184023
S11312E04401164B1B1919685B689B049E0C022869
S11312F01AD8002D1BD0124B9C46644480235B00FB
S1131300E35C112B16D10823FF33E35C0020DB06DA
S113131000D470BD082228000A4B984710220823E5
S1131320FF33E2543000F4E712204042F1E7122088
S11313304042EEE713204042EBE7C046840200201F
S11313400050004141210000F0B5DE4657464E46AC
S11313504546E0B585B08046067A0F23334076B221
S1131360002B00D1D3E01800002E39DB0400734AAF
S11313706032411C8D006D18AD00551981000918AB
S113138089005218918C6E4A91422BD04F1EBFB2E5
S1131390424652681740022B00D9A4E043461B681A
S11313A06848834220D99818019067488446019878
S11313B0604519D89B0717D1002E32DB914200D922
S11313C0AFE0002F30D0A3001B199A005B4B9B1891
S11313D080331B68002B00D18BE0002399460FE07B
S11313E0981CC3E70F00D3E7A3001B199A00534BC3
S11313F09B1880331B68002B00D177E001239946AA
S1131400A3001B199A004D4B9B188033DB790220F3
S11314101B070CD505B03CBC90469946A246AB468A
S1131420F0BD00239946EBE700239946E8E703A8BB
S1131430464B9847A3001B199A00404B9B188033D6
S1131440DB795B0644D4A3001B199B003B4A9346FB
S11314509B4480235B449A46DB79402213435246E3
S1131460D37103A83A4B98475B46424612685A67C1
S1131470424652689A6700235A46D367F20FD20154
S11314805346D9797F230B4049464901134320220F
S113149093430B435246D37143465B7A0022002B9D
S11314A002D07A427A41D2B2A3001C19A400234B81
S11314B01B1980331201DF7910218F431743DF7129
S11314C0002E0ADB00212800224B98470020A1E7C8
S11314D003A81F4B984701209CE7002128001E4BBE
S11314E09847002096E71220404293E71320404299
S11314F090E7122040428DE7132040428AE743469A
S11315005A689705BF0D0D4D7435002446E70B4A04
S11315106032918C0A4A9142F1D0084D743500240E
S113152034E7A3001B199A00044B9B1880331B68F3
S1131530002BE1D00123994662E7C04684020020D3
S1131540FF030000FFFFFF1FFF0F0020190400002E
S113155027040000650E0000BD0C00000B1E08D01F
S1131560002808D0012809D0022806D1054A1367AB
S113157003E0054BF4E7034A93667047014AD366D8
S1131580FBE7C04684020020250A0000F8B5824B20
S11315901E8CB6B2002E03D0804C74340025B9E002
S11315A0998B1B8B0B405A0717D49A051CD41A0627
S11315B03ED470221A4244D11A075ED4DB07EBD51D
S11315C0754B774A9A839A82923AFF3A1A83734BFD
S11315D05B6E00210420984705E004226E4B9A8339
S11315E06E4B1B6E9847F8BD6B4B6D4A9A839A827B
S11315F0923AFF3A1A83694B1B891B071B0F032B73
S11316000CD0664B1B8D1B071B0F00216F3A032B5D
S113161005D0624B5B6E03209847E4E70022520139
S11316205E4B9B1819894904490D00221A81F0E781
S11316308022594B9A83594B5B6E002105209847B1
S1131640D1E7554B9A839A82554A1A83554B9B8C02
S11316509B060CD45349323AFF3ACB681340D02B43
S1131660FBD14E4B5B6E002102209847BBE74D49EE
S11316701022CB681A42FCD0F3E7474B00218022AA
S113168052009954F83A9A8368329A82444A1A83E7
S1131690454B9847414B5B6E002101209847A2E7D8
S11316A0CB0607D44B0608D48B062ED500213F4B1E
S11316B098472AE03E4B984727E001213B4B984747
S11316C023E04B060ED40B0710D48B0712D4072348
S11316D01A40012A19D14B0710D4CB0615D5344B27
S11316E0984712E00121314B98470EE00121314B1C
S11316F098470AE00121304B984706E000212D4B22
S1131700984702E00021294B984701351434092DEC
S113171000D168E72000A17CFF29F6D00F230B40FD
S1131720012199400E42F0D05901244FBC46614436
S1131730C9795B01224FBC4663441B781940E4D04D
S1131740AB005A199200154B9C4662447032D27D0C
S113175047231340012BA3D053B2002BB1DB8B06DC
S1131760D0D44B070CD4CB070ED407231A40012A3C
S1131770CBD10B070CD4CB06C7D50D4B9847C4E788
S113178000210C4B9847C0E701210E4B9847BCE75A
S11317900121084B9847B8E700500041840200201B
S11317A00102000000080040790C0000B50A0000A6
S11317B0290A0000790B0000BD0C00000051004113
S11317C009510041650E0000F0B5CE46474680B58C
S11317D08DB09B4B98479B4B98479B4AC023DB0596
S11317E09A61FA20C000994B984700239846984B79
S11317F09946C026F605974FA9E0974D924B2B606A
S1131800B361964B984700232B602B71A04607E0E9
S11318108F4B1B78002B03D14346002B00D0A7E04D
S11318208B4B1B78002B39D08D4C06E002218D4860
S1131830B8478D4B1B78002B1CD1012104A8A0476D
S113184000282BDD04AB1B780D2BEFD00A2BEDD039
S1131850082B17D07F2B15D0834A12783E2AECD858
S1131860501C8149087081498B54012104A8794B8B
S11318709847E2E77D480025C5547D4B98477A4B4D
S11318801D70DAE7784B1B78002BD6D0013B764AE3
S11318901370032177486F4B9847CEE701A8764B26
S11318A098473468754B1A6A336953401C40544056
S11318B001A8734B9847E30363D46B4B5B78FF2B0E
S11318C05FD00133684A537000230093009A6D4B34
S11318D09A4206D81A00009B01330093009B93425E
S11318E0F9D95D4B1B79002B0DD05B4B5B79002B39
S11318F000D19FE0584A136801331360564A1368B5
S11319009B059B0D1360504B7361534B1A689305F1
S11319109B0DB3614E4B1B78002B14D04346002B18
S113192011D04D4B9B689A420DD0574904A8574B90
S1131930984704A8564B9847010004A8454B98477C
S1131940454B1A689A60444B9889404B98474B46DC
S11319501C78E4B2002C00D15AE74346002B00D196
S11319604BE73B4B1D78EBB29846002B00D057E772
S1131970394A01231371344B1360B3610023984631
S11319804EE702A83C4B984734683C4B1A6A3369CB
S113199053401C40544002A8394B9847E30328D5D0
S11319A0314B5B78002B24D0132B17D82A4A137998
S11319B001214B4013712C4B9B78002B0AD0002241
S11319C0294BDA70244B204A1A60B26101221A7141
S11319D05A710AE00122244B9A7006E01E4B5A7990
S11319E001214A405A7101221A7100221E4B5A7079
S11319F077E703A8204B98473468204B1A6A336969
S1131A0053401C40544003A81D4B9847E30300D4A3
S1131A1067E7154B9B78002B00D162E7124AD37815
S1131A200133DBB2D370052B00D85AE700220E4BEA
S1131A309A7056E7084A1368013B13605EE7C04694
S1131A40150100008D1C0000FF0300003504000098
S1131A5096040020591D000000000020E11D000034
S1131A60AD1C0000B82D00006C04002068050020A7
S1131A70651E00008C2B0000190400000044004186
S1131A8027040000BF270900902B000065210000F7
S1131A90BD21000010B50400074B5B79002B07D073
S1131AA0054B187900230A002100044CA04710BDFF
S1131AB011204042FBE7C04670040020491B00008F
S1131AC010B50400074B5B79002B07D0054BD87881
S1131AD001230A002100044CA04710BD11204042FC
S1131AE0FBE7C04670040020491B000010B5012824
S1131AF010D0002806D0022814D0032816D00D20B8
S1131B00404206E00B4B18790A0002210A4B984721
S1131B10002010BD074BD8780A000221064B9847D5
S1131B200020F6E7034B19610020F2E7014B5961ED
S1131B300020EEE77004002051080000014B5879A2
S1131B407047C0467004002010B584B001AC019108
S1131B500292207263722000014B984704B010BDBA
S1131B60290700000022024B1A7000207047C0466B
S1131B709404002010B50122034B5A7040210348FD
S1131B80034B984710BDC04694040020A8050020CC
S1131B90951A000010B582B0031C01AA1080DB075F
S1131BA005D40022084B9A70002002B010BD0749EA
S1131BB00020074CA04707490120A047064B98473F
S1131BC00122014B9A70EFE794040020DD1B000012
S1131BD0ED1A0000651B0000751B000070B582B093
S1131BE014000025002902D0280002B070BD214B4A
S1131BF000225A705B684026F61AF6B201A81E4B02
S1131C0098470135A64223D3002C2FD0194A506897
S1131C1013181A4909781972431C5360402B27D0B2
S1131C2022180021134C0834C043144E9A420CD09D
S1131C30C11889194978195501332900402BF5D168
S1131C4040220C4B5A60002502E000290BD10025EC
S1131C504022002109480A4B984701A8094B98479C
S1131C60094B9847C0E7034A5360F0E70025EFE7C4
S1131C700025EDE79404002019040000A8050020C5
S1131C805321000027040000751B000010B5044C0C
S1131C90A0470028FCD003490320034B984710BDFC
S1131CA03D1B0000951B0000ED1A0000F0B585B047
S1131CB007000C00224B5D6800230193002D24D003
S1131CC08D4225D301916D1A03A81E4B984722001B
S1131CD01B49083138001C4B9847002D22DD184E53
S1131CE03700083739192A003800174B98477368AA
S1131CF05A1B78190021154B9847756003A8144B9B
S1131D0098470F4B5B78002B16D0019805B0F0BDB7
S1131D10019503A80B4B98472A000949083138005C
S1131D20094B9847064C2000083062680021074B95
S1131D30984700236360E1E7064B9847E5E7C04610
S1131D4094040020190400004121000053210000E4
S1131D5027040000751B0000F8B5DE4657464E46C2
S1131D604546E0B580460F1E2BDD194B9B78002BB2
S1131D7027D00025174E164B9B4601239A46164B37
S1131D8099465C4609E00022124B9A600135AF4245
S1131D9017DD0F4B9B78002B13D043465A5DB36875
S1131DA0591CB160F3181A735B4652461A700B48FB
S1131DB0C847074A1378002BE5D0A378002BF9D144
S1131DC0E1E738003CBC90469946A246AB46F8BDD4
S1131DD09404002014050020C11A000020050020EE
S1131DE070B502211348144CA04732211348A04770
S1131DF032211348A04732211248A0473221124809
S1131E00A04732211148A04733211148A047C826D2
S1131E10B60030000F4DA84715210F48A0473000E9
S1131E20A84718210D48A0473000A84720210C4896
S1131E30A04770BDB82D0000591D0000A02B000064
S1131E40D42B0000082C00003C2C0000702C000057
S1131E50A42C000035040000DC2C0000F42C00004D
S1131E60102D000070B505000078002807D02C0064
S1131E70474EB0472070013420780028F9D14549F5
S1131E802800454B9847002822D044492800424B5B
S1131E909847002821D0424928003F4B9847002802
S1131EA020D004223F4928003F4B984700282DD1D9
S1131EB0281D2B79302B1AD00A2200213B4B98473E
S1131EC03B4B98421DD804213A483B4B984703E0CA
S1131ED004213848384B984770BD04213548364BA7
S1131EE09847F9E704213348334B9847F4E76B7973
S1131EF020229343582BDFD1103A00212B4B9847D3
S1131F00DEE705212D482C4B9847E5E706222C49AE
S1131F102800254B984700281DD1A81DAB79302BEC
S1131F200AD00A220021214B984700280ED0042110
S1131F302048214B9847CFE7EB7920229343582B35
S1131F40EFD1103A0021194B9847EEE705211B48C1
S1131F50194B9847C0E71B4928000F4B98470028A6
S1131F6004D003211848144B9847B5E70E211748AD
S1131F70114CA04742211648A04723211548A047E9
S1131F801B211548A04739211448A047A4E7C0469F
S1131F9025230000302D0000A9210000382D000069
S1131FA0402D0000482D0000CB210000FD22000040
S1131FB0FF030000082D0000591D0000502D0000F3
S1131FC0582D0000602D0000382E0000682D000000
S1131FD0782D0000BC2D0000E02D0000FC2D000039
S1131FE0002243088B4274D303098B425FD3030A54
S1131FF08B4244D3030B8B4228D3030C8B420DD367
S1132000FF22090212BA030C8B4202D312120902F4
S113201065D0030B8B4219D300E0090AC30B8B4232
S113202001D3CB03C01A5241830B8B4201D38B03E0
S1132030C01A5241430B8B4201D34B03C01A524185
S1132040030B8B4201D30B03C01A5241C30A8B42C8
S113205001D3CB02C01A5241830A8B4201D38B02B3
S1132060C01A5241430A8B4201D34B02C01A524157
S1132070030A8B4201D30B02C01A5241CDD2C309C9
S11320808B4201D3CB01C01A524183098B4201D345
S11320908B01C01A524143098B4201D34B01C01A30
S11320A0524103098B4201D30B01C01A5241C308A8
S11320B08B4201D3CB00C01A524183088B4201D317
S11320C08B00C01A524143088B4201D34B00C01A03
S11320D05241411A00D20146524110467047FFE76F
S11320E001B5002000F006F802BDC0460029F7D073
S11320F076E770477047C04670B500260C4D0D4C0E
S1132100641BA410A64209D1002600F067FF0A4D03
S11321100A4C641BA410A64205D170BDB300EB5851
S113212098470136EEE7B300EB5898470136F2E7DB
S1132130E82F0000E82F0000E82F0000EC2F00003B
S1132140002310B59A4200D110BDCC5CC4540133B5
S1132150F8E703008218934200D1704719700133E5
S1132160F9E700000EB410B59DB002A90290086111
S11321700B48822488604861012040421FABC8811B
S1132180084804CBA400006801938C8100F0BAF9DC
S11321900023029A13701DB010BC08BC03B018478A
S11321A0FFFFFF7F1000002002780B78002A03D085
S11321B0013001319A42F7D0D01A70470023C25C33
S11321C00133002AFBD1581E7047002330B59A42D0
S11321D00AD0013AC45CCD5CAC4204D19A4202D02C
S11321E00133002CF6D1631B180030BDF0B51F007D
S11321F00E0087B00590039101920C98347800F09A
S11322009EF8082200194378751C13400CD12D2C1C
S11322100CD101332C780293B51C002F0CD0102F55
S113222014D1302C0AD011E02E00E6E702932B2CB7
S1132230F3D12C78B51CF0E7302C2FD120222B7849
S11322409343582B54D110276C7802350120390060
S11322504042FFF7C5FE0600012039004042FFF767
S113226045FF002304910121012218008C465242AB
S113227021003039092913D80C00A7421EDD002B98
S11322801ADB1300864206D302D10499A14202DB71
S11322906346784320182C780135E9E70A27D5E707
S11322A021004139192901D8373CE6E72100613979
S11322B0192903D8573CE0E71300ECE7002B09DAAF
S11322C022230120059A40421360019B002B0BD16D
S11322D007B0F0BD029A002A00D04042019A002AB9
S11322E0F6D0039A002B00D06A1E019B1A60EFE718
S11322F03024002FAAD10837A8E7000037B513000F
S1132300064A05001068046A002C00D1044C0A0037
S113231000942900FFF76AFF3EBDC046100000206C
S11323207400002010B5040000F00CF8032200191A
S113233043781340022B00D1203C200010BDEC3028
S113234000687047044B1B681B6A002B00D1034BC9
S1132350EC3318687047C046100000207400002059
S113236082B0002900D101A9101E06D0002B06D08E
S113237013780B601078431E984102B07047022016
S11323804042FAE7032370B5CD1C9D43083506008F
S11323900C2D1ED20C25A9421DD8300000F079FB6B
S11323A0254A14682100002919D1244C2368002BE4
S11323B003D1300000F032FB20602900300000F02F
S11323C02DFB431C2CD10C233000336000F062FB46
S11323D003E0002DDFDA0C233360002070BD0B68AE
S11323E05B1B1AD40B2B03D90B60CC18256003E0BC
S11323F08C420ED163681360300000F04BFB200068
S113240007220B30231D9043C31AE7D05A42E250EF
S1132410E4E74B6863600C00EEE70C004968C2E730
S11324200323C41C9C43A042E0D0211A300000F0D6
S1132430F5FA431CDAD1C6E76005002064050020E4
S1132440F0B58E6885B007000C00039201939E429C
S113245039D890238A89DB001A4234D003250969CC
S113246023685B1A0293636902985D43EB0F5D195D
S1132470019B6D1001331B18AB4200D91D0053059D
S113248032D529003800FFF77DFF061E09D10C2341
S11324903B6040230120A28940421343A38105B03D
S11324A0F0BD029A2169FFF74BFEA389144A1A4032
S11324B080231343A381029B2661F618266065617D
S11324C0019EED1AA560019BB34200D21E003200AA
S11324D00399206800F0CBFAA36800209B1BA3603B
S11324E023689E192660DAE72A00380000F01EFBF4
S11324F0061EE0D12169380000F0CEFAC7E7C046D5
S11325007FFBFFFFF0B59FB0029005938B890F000E
S113251016001B0611D50B69002B0ED14021FFF7C5
S113252031FF38603861002805D10C23029A013844
S113253013601FB0F0BD40237B61002306AD6B61C7
S113254020336B761033AB7634002378002B47D1DD
S1132550A31B04930DD0A31B320039000298FFF78C
S11325606FFF431C00D1B5E06A69049B9446634441
S11325706B612378002B00D1ACE00122002352428E
S11325806A6002A95432521801342B60EB60AB60CC
S11325901370AB65584E05222178300000F05CFAC8
S11325A0621C002820D12968CB0604D5532302AE2F
S11325B020309B1918700B0704D553232B2002AE2F
S11325C09B19187023782A2B16D000200A21099B06
S11325D02278303A092A55D9002815D0099313E0F6
S11325E0252BB5D00134B0E70123801B8340296833
S11325F014000B432B60CDE7059B181D1B68059049
S1132600002B39DB0993140023782E2B0BD163782C
S1132610621C2A2B3ED1059B02341A1D1B680592AD
S1132620002B34DB0793354E21780322300000F071
S113263013FA002806D04023801B83402A68013403
S113264013432B60217806222D48661C297600F05E
S113265003FA002846D02B4B002B2FD12968059B69
S11326600722C90528D59B189343083305936B6942
S1132670039A9B186B6167E75B42EB6002230B4391
S11326802B60C0E74B4301349B180120A0E70123D2
S11326905B42C7E7002314000A201A006B6021780C
S11326A03039092903D9002BBDD00792BBE7424337
S11326B0013452180123F2E70733D5E705AB009341
S11326C03A00114B2900029800E000BF0390039BDD
S11326D00133CCD1BB890B985B0600D429E70120D8
S11326E0404226E705AB00933A00074B29000298C5
S11326F000F07AF8EAE7C046A62E0000AC2E0000EF
S1132700B02E00000000000041240000F7B51500C1
S113271001938A680B6900900C00934200DA13005D
S113272022002B6043321278002A01D001332B603F
S113273023689B0602D52B6802332B600627236887
S11327401F4027D0230043331B785A1E934122682D
S1132750920630D42200019943320098089EB04773
S1132760431C25D0062320682A68E168034000251D
S1132770042B03D18D1AEB43DB171D40A368226998
S1132780934201DD9B1AED180027BD4220D10020A1
S113279010E00137E3682A689B1A9F42D2DA2200CC
S11327A00123193201990098089EB047431CF0D1C7
S11327B001204042FEBD3020E11843310870210061
S11327C05A1C45310978A218433202331170C1E70B
S11327D0220001231A3201990098089EB047431C35
S11327E0E6D00137D1E70000F0B58BB006920A00BD
S11327F043320793059004920A7E0C00109B6E2AC4
S113280000D18FE017D8632A2CD008D8002A00D131
S113281099E0582A54D026004236327029E0642ABE
S113282001D0692AF7D121681A68080623D5111D39
S11328301960156825E0732A00D188E008D86F2A4A
S113284029D0702AE7D1202209680A43226003E0D4
S1132850752A20D0782ADED12200782145321170E1
S11328606C4A30E00E001A684236111D1960136874
S11328703370012379E04906D9D5111D196000236D
S1132880D55E002D03DA2D23049A6D421370624B3A
S11328900A2703932FE020681968050603D5081D4D
S11328A018600D6805E04006F9D50D68081D18602C
S11328B0ADB2594B082703936F2A18D00A2716E0A4
S11328C045310A70544A03921A682168101D186031
S11328D01568080622D5CB0702D5202319432160A9
S11328E01027002D03D1202322689A43226023005D
S11328F0002243331A706368A360002B5CDB04225C
S1132900216891432160002D58D1049E002B64D08E
S11329102600039B42361B7833705EE04806DAD506
S1132920ADB2D8E709681A68080605D5111D196003
S1132930136862691A6006E04906F7D5111D19602B
S11329401368A28A1A800023049E236154E01A6843
S1132950111D1960166800216268300000F07CF8CF
S1132960002801D0801B6060636823610023049AFF
S1132970137041E02369320006990598079DA84722
S1132980431C43D0236800259B070FD4099BE068B0
S113299098423DDA18003BE02200012319320699DF
S11329A00598079EB047431C30D00135E368099A67
S11329B09B1A9D42F0DBE9E7002DA9D0049E280074
S11329C03900FFF793FB039B013E5B5C28003370E7
S11329D03900FFF705FB051EF1D1082F09D1236843
S11329E0DB0706D563682269934202DC3023013E8B
S11329F03370049B9B1B2361079B09AA009321004E
S1132A00069B0598FFF782FE431CB3D10120404288
S1132A100BB0F0BDC82E0000B72E0000002370B527
S1132A20064C050008002360FDF73AFF431C03D160
S1132A302368002B00D02B6070BDC046E805002041
S1132A400B1E04D0FF2A04D98A2303608B3B180091
S1132A5070470A700123FAE7C9B28218904201D183
S1132A600020704703788B42FBD00130F6E710B5A5
S1132A70884202D98B18984208D300239A4207D07F
S1132A80CC5CC4540133F9E78B5C8354013AFBD228
S1132A9010BD70477047000070B50500002910D0C4
S1132AA00C1F2368002B00DAE4182800FFF7F1FF5D
S1132AB01D4A1368002B05D1636014602800FFF7DA
S1132AC0E9FF70BDA34209D9216860188342F3D19C
S1132AD018685B6841182160EEE713005A68002A01
S1132AE001D0A242F9D919685818A0420BD1206824
S1132AF00918581819608242E0D1106852684118C8
S1132B0019605A60DAE7A04202D90C232B60D5E79A
S1132B1021686018824203D110685268411821600C
S1132B2062605C60CAE7C04660050020F8B5070033
S1132B300D001600002905D11100FFF723FC040045
S1132B402000F8BD002A03D1FFF7A6FF3400F7E701
S1132B5000F012F82C008642F2D931003800FFF759
S1132B6011FC041EECD029003200FFF7E9FA290019
S1132B703800FFF791FFE3E70B1F1B68181F002BBA
S1132B8001DA0B58C0187047002000000820080024
S1132B90434F554E543A20256C750D0A0000000031
S1132BA0277C7C5C2020202F7C7C60207C27277C59
S1132BB07C27277C20277C7C272727277C202E7CAA
S1132BC0272727272C20277C7C20207C7C60200D35
S1132BD00A000000207C7C5C2E2F2F207C7C20208F
S1132BE02020207C7C20202020207C7C2020202E63
S1132BF020207C7C202020202020207C7C20207C05
S1132C007C20200D0A000000207C7C202020202035
S1132C107C7C20202020207C7C20202020207C7C88
S1132C202727277C20207C7C202020202020207C1B
S1132C307C27277C7C20200D0A000000207C7C203F
S1132C40202020207C7C20202020207C7C20202010
S1132C5020207C7C2020202020207C7C2020202000
S1132C602020207C7C20207C7C20200D0A00000079
S1132C702E7C7C20202020207C7C2E2020202E7C5A
S1132C807C2E2020202E7C7C2E2E2E2E7C20607CE0
S1132C902E2E2E2E27202E7C7C20207C7C2E200D78
S1132CA00A0000000D0A4D6F6E74616E6120546558
S1132CB0636820456C656374726963616C20456E5A
S1132CC067696E656572696E672042696E617279C3
S1132CD020436F756E7465720D0A00000D0A43502F
S1132CE0553A20415453414D443231453135420D1A
S1132CF00A000000436C6F636B2053706565643A8F
S1132D00203438204D487A204F4B0D0A0000000033
S1132D1054797065202768656C702720666F72206F
S1132D20636F6D6D616E6420696E666F2E0D0A00AF
S1132D3053544F5000000000434F554E54000000C0
S1132D4053544152540000005345542000000000E5
S1132D504552520D0A0000005350454544200000DE
S1132D6048454C50000000000D0A436F6D6D616EC4
S1132D7064733A0D0A000000534554202D20536516
S1132D8074732074686520636F756E746572207443
S1132D906F206120676976656E2076616C756520A9
S1132DA03C20313032342028646563696D616C20C5
S1132DB06F7220686578292E0D0A00005354415221
S1132DC0542F434F554E54202D2053746172747305
S1132DD02074686520636F756E7465722E0D0A0029
S1132DE053544F50202D2053746F707320746865B2
S1132DF020636F756E7465722E0D0A00535045453D
S1132E0044202D20536574732074686520636F75A6
S1132E106E7420737065656420286D7329206F6655
S1132E20207468652062696E61727920636F756EC3
S1132E307465720D0A0000003F0D0A0000000000D6
S1132E40000000000000000000000000000000007E
S1132E50000000000000000000000000000000006E
S1132E60000000000000000000000000000000005E
S1132E70000000000000000000000000000000004E
S1132E80000000000000000000000000000000003E
S1132E900000000000000000000000004300504F4C
S1132EA0534958002E00232D302B2000686C4C0011
S1132EB06566674546470030313233343536373836
S1132EC03941424344454600303132333435363794
S1132ED03839616263646566000020202020202068
S1132EE020202028282828282020202020202020B6
S1132EF020202020202020202020881010101010B6
S1132F001010101010101010101004040404040405
S1132F1004040404101010101010104141414141E8
S1132F20410101010101010101010101010101014D
S1132F3001010101011010101010104242424242DE
S1132F40420202020202020202020202020202021D
S1132F500202020202101010102000000000000003
S1132F60000000000000000000000000000000005D
S1132F70000000000000000000000000000000004D
S1132F80000000000000000000000000000000003D
S1132F90000000000000000000000000000000002D
S1132FA0000000000000000000000000000000001D
S1132FB0000000000000000000000000000000000D
S1132FC000000000000000000000000000000000FD
S1132FD0000000000000000000000000F8B5C0463A
S1132FE0F8BC08BC9E467047DD000000F8B5C0463A
S10F2FF0F8BC08BC9E467047B500000009
S1132FFCFF03000001010000FFFFFFFFC8000000F9
S113300C14000020000000005C2E00007C2E000048
S113301C3C2E000000000000000000000000000036
S113302C0000000000000000000000000000000090
S113303C0000000000000000000000000000000080
S113304C0000000000000000000000000000000070
S113305C0000000000000000000000000000000060
S113306C000000004300000000000000000000000D
S113307C0000000000000000000000000000000040
S113308C00000000430000000000000000000000ED
S113309C0000000000000000000000000000000020
S11330AC00000000430000000000000000000000CD
S11330BC0000000000000000000000000000000000
S11330CC00000000430000000000000000000000AD
S11330DC00000000000000000000000000000000E0
S11330EC000000004300000000000000000000008D
S11330FC00000000000000000000000000000000C0
S113310C000000004300000000000000000000006C
S113311C000000000000000000000000000000009F
S113312C000000004300000000000000000000004C
S113313C000000000000000000000000000000007F
S113314C00000000412A0000612300000000000080
S113315CD92E0000A42E0000AB2E0000AB2E0000D4
S113316CAB2E0000AB2E0000AB2E0000AB2E0000EB
S113317CAB2E0000AB2E0000AB2E0000FFFFFFFFB8
S113318CFFFFFFFFFFFFFFFFFFFF000001004153A4
S113319C434949000000000000000000000000004A
S11331AC000000000000000000000000000041537B
S11331BC434949000000000000000000000000002A
S11331CC00000000000000000000000000000000EF
S9030000FC
