S01B000053414D442042696E61727920436F756E7465722E737265635F
S1130000780A0020250100002101000021010000E0
S113001000000000000000000000000000000000DC
S113002000000000000000000000000021010000AA
S11300300000000000000000210100002101000078
S11300402101000021010000210100002101000024
S1130050210100002101000021010000D51C000045
S11300602101000021010000210100002101000004
S11300702101000000000000000000002101000038
S113008021010000210100002101000021010000E4
S11300902101000000000000000000002101000018
S11300A021010000210100002101000021010000C4
S11300B00000000010B5064C2378002B07D1054B37
S11300C0002B02D0044800E000BF0123237010BDC0
S11300D0480200200000000004440000084B10B552
S11300E0002B03D00749084800E000BF0748036815
S11300F0002B00D110BD064B002BFBD09847F9E72D
S1130100000000004C0200200444000004440000ED
S11301100000000010B5014B984710BDD502000047
S1130120FEE70000F8B52A4A2A4B9A4211D01A0079
S1130130294B9A420DD2294A03339B1A9B08013357
S11301409B000022234822498C58845004329A424E
S1130150FAD1234A234B9A420AD2D34321495B184A
S113016003218B4304339B18002102C29342FCD128
S11301701D4AFF211D4B8B439360FD3990235B0087
S11301801B4AD1501B4AD3780325AB430224234393
S1130190D370D3780C27BB4308263343D370164B54
S11301A0987B30229043202210439873997BB94363
S11301B0314399739A7BAA4322439A730F4A536833
S11301C080210B4353600E4B98470E4B9847FEE734
S11301D00444000000000020480200200400002025
S11301E0480200207406002000ED00E0000000003A
S11301F000700041005000410048004100400041AF
S1130200AD330000111F0000F0B5C64600B5C02490
S1130210E40580225204A2601A4B8027FF059F62E6
S11302201949996262615820195C042290469143ED
S11302301954195C0126B14301252943C9B2195443
S11302401C38195C0B329143093A1143195480212B
S11302508904A1609F620D4F9F62616159215C5CBA
S1130260424694435C545A5CB2432A43D2B25A5431
S11302701A5C4A390A4051310A431A5404BC904664
S1130280F0BDC04600440041000100C0000200C0AF
S1130290064BDA6920210A43DA615A6920310A439C
S11302A05A61034A034B5A807047C0460004004019
S11302B006400000000C004010B5034B9847034B68
S11302C09847034B984710BD91020000C1060000F7
S11302D00902000070B5404B9847C022D2050121A5
S11302E0516191603D4B3E489862C020000698627F
S11302F040241D5D8D431D55022555619560394D82
S11303009D62986241269D5D8D439D5504255561EE
S11303109560354D9D62986201369D5D8D439D5576
S1130320082555619560314D9D62986201369D5D49
S11303308D439D551025556195602D4D9D629862A4
S113034001369D5D8D439D55202555619560294D50
S11303509D62986201369D5D8D439D555461946004
S1130360254C9C62986246255C5D8C435C558024D8
S113037054619460214C9C62986201355C5D8C43AD
S11303805C5580246400546194601D4C9C629862A6
S113039001355C5D8C435C558024A40054619460F9
S11303A0184C9C6298624924185D8843185580242F
S11303B0640254601448986214489862546050204F
S11303C01D5C413E35431D5494611A5C8A431A54A2
S11303D00F4B984770BDC046C90A00000044004155
S11303E001000040020000400400004008000040FA
S11303F01000004020000040400000408000004009
S1130400000100400002004000000240010002C060
S1130410B9020000EFF31083036072B6BFF35F8F7D
S11304207047BFF35F8F036883F310887047000041
S113043010B5044B1C68044B984701002000034B83
S1130440984710BD64020020A50A0000C10A0000FC
S1130450F0B504000E4B5A78904217D000230020C8
S11304600B4F0F2626403D0008E0013040B204281F
S11304700AD02033EA185278A24206D0D95D002966
S1130480F3D19642F1D100E00538F0BD0020FCE73D
S1130490680200200020704770B504000D000A4B6C
S11304A098474201094B9B189A780023032A01D0EC
S11304B0180070BD4001054B1818836929002000FD
S11304C098470300F4E7C046510400006802002086
S11304D0F0B585B005000F001600514B9847040095
S11304E0002F62D14F4B420199180020C870D35C91
S11304F0002B0ED062014B4B9B1801229A706401B1
S1130500484B1C19E178E36932002800984705B08C
S1130510F0BD8B78032B0CD0424B62010C329A183D
S113052064011C1960780021E36998470223A370D1
S1130530EDE73C4A0B000C254D5761010C31521874
S11305405878DB6901219847002817D06201354BA0
S11305509B1805229A70033ADA70002D09DB6401B6
S1130560304B1C1960788023184301212E4B984787
S1130570CDE764012B4B1C196078F6E76401294B25
S11305801C190423A3706378002201920292002DA7
S113059008DB8032134301A8037201234372234B07
S11305A09847B4E70F221340F5E7012F0AD0022F32
S11305B01DD0032F2CD042011A4B9B1806229A708F
S11305C0DA709CE7174B420199180220C870D35C7B
S11305D0002B05D06201134B9B1805229A708EE7FD
S11305E002228A70002128000F4B984787E70D4BA1
S11305F0420199180420C870D35C002B05D0620115
S1130600084B9B1801229A7079E702238B707EE7CE
S11306104201044B9B1800229A700532DA706EE78F
S11306205104000068020020991800006D1A0000AF
S1130630F0B5C64600B504001D4B984706004501B9
S11306400C351C4B5D19290020001B4B9847C0B288
S113065008280AD001212000184DA84780202043F3
S11306600121A84704BC9046F0BD00212000134B93
S1130670984698478027274300213800C0477201D5
S11306800C4B9B1801229A705B6929002000984743
S11306900028E7D17601074B9E190523B370012189
S11306A02000064CA04701213800A047DAE7C046E5
S11306B05104000068020020FD1900009918000090
S11306C010B5104B984700281BDB0F4C80220021EB
S11306D020000E4B984723008034FF210C4A5970A8
S11306E05A619A61DA612033A342F8D109490020A2
S11306F0094CA04709490120A04709490220A04705
S1130700002010BD791200006802002007340000A8
S11307109504000031060000A51C000099040000A7
S1130720D104000010B5014B984710BD811C000096
S113073010B5014B984710BD5513000010B5014B7F
S1130740984710BDA513000010B5014B984710BD84
S1130750B5130000F8B505000E0017000F4B9847BD
S1130760002814DAFF200D4B9847041E12DB3A00D0
S1130770310028000A4B9847002807DB094A640126
S113078013195D7003231E40A6540020F8BD1420E5
S11307904042FBE715204042F8E7C0465104000000
S11307A0C51300006802002010B582B200210020A9
S11307B0014B984710BDC0465507000070B50500B1
S11307C0064B9847041E07DB2800054B9847640135
S11307D0044B1C19FF23637070BDC0465104000014
S11307E0F11400006802002070B504000E4B984715
S11307F0051E15DB43010D4A9B5C5A4253410133EC
S113080041010A4A521893702000094B9847002866
S113081000DB70BD6D01054B5D190023AB70F8E77B
S113082012204042F5E7C04651040000680200204F
S1130830BD150000F0B5D6464F464646C0B586B055
S11308400400077A3800404B98470500667A6368CD
S11308509846002800DA71E004A83C4B98476A01E6
S11308603B4B9B189A7817236B441A701B78012B07
S113087010D004A8374B984717236B441B78DBB27E
S1130880052B5ED0062B23D00120002B3CD1132056
S1130890404239E02E4B99466B019A464B465344ED
S11308A003229A7004A82B4B98474B465246D35CBC
S11308B0002B10D0237A721E9641F6B22268019260
S11308C0424602927FB2002F17DB0F22134016E03C
S11308D01020404218E06B011D4AD218D17C090255
S11308E0937C5B189BB2002B14D1042393700022D9
S11308F00126237A2168019102928022134301A8E0
S113090003724672144B984706B01CBC9046994635
S1130910A246F0BD42469A4200D91A006D010C4924
S11309204D19297B7F2905D8237A216801910292E8
S11309300026CAE79A42B6417642DAE712204042DC
S1130940E2E70220E0E7C04651040000150400007D
S113095068020020230400006D1A000070B5040032
S1130960002905D0012921D00221134B984770BDDD
S1130970124B9847051E1CDB022120000E4B9847A2
S11309800028F4D0002120000B4B98470028EEDB10
S11309906D010B4B5D190123AB700233EB70EB69F6
S11309A000220321200098470020E0E7024B9847EB
S11309B0DDE712204042DAE79918000051040000F4
S11309C06802002070B50D0014000F4B9847030017
S11309D0221E08D0002B05DB012D0BD0002D04D0E6
S11309E0022D0CD070BD094AF4E74001084B1818D9
S11309F04261F7E74001064B18188261F2E74001B3
S1130A00034B1818C261EDE751040000950400007F
S1130A1068020020002800D100BE70470368002B44
S1130A200AD08B420AD01B68002B03D09942FAD11A
S1130A30012000E0002070470020FCE70120FAE7D5
S1130A4070B505000E0004680A4B9847012358400E
S1130A50C0B24F220849094B98472B68002B03D199
S1130A602E60336005E01C002368002BFBD1266058
S1130A70336070BD1D0A00003C3E0000150A0000F2
S1130A800300064A1268002A04D0044A1068C318F6
S1130A90136070470249014A1160F6E7E80200203A
S1130AA0780A002010B50301181A4001023003210E
S1130AB0024B98476423584310BDC046953200004A
S1130AC00139FDD87047000010B5084A5368022167
S1130AD00B435360064B9847064B98470220064C3D
S1130AE0A047064B9847FD20A04710BD0040004199
S1130AF0410B0000610B0000010B0000790B0000AA
S1130B00C30709D50B4B802252009A600A4A5A60E7
S1130B101A005378DB09FCD1830709D5054B02225F
S1130B20FF329A60054A5A601A005378DB09FCD1F7
S1130B307047C046000C004000070100010301009B
S1130B40064B1A7AD2B21A725A7AD2B25A729A7A74
S1130B50D2B29A72DA7AD2B2DA72704700040040E2
S1130B60044B9A6902210A439A611A7F1D310A4093
S1130B701A777047000800408222D2011D4B5A8028
S1130B8002221D4B9A8419000E32CB681A42FCD003
S1130B901A4A194BDA621A4B1B689B0E3F2B1FD063
S1130BA09B02802292001343134A93620623938488
S1130BB0938C5B0717D51100D022CB681340D02B40
S1130BC0FBD10D4A938C80210B439384094A5378BB
S1130BD0DB09FCD1084A936902218B439361704776
S1130BE0FC23DB01E0E704491022CB681A42FCD065
S1130BF0E7E7C046000C004000080040B9050104C6
S1130C00246080000020704770B5837C0F2213405D
S1130C10C17C083A0A40012A0BD05A0119498C4672
S1130C2062441021D1715B01174A944663441970E0
S1130C3070BD4A060ED5C27C40218A43C2745A0153
S1130C40124CA4466244802582246400155506246F
S1130C50FF341155C27C08218A43C2740C495A01DD
S1130C608C180025A572A5761300064CA44663448F
S1130C706F24DC71044B9C4662441470807C8B6E40
S1130C809847D5E700510041085100410050004108
S1130C90EC02002010B520228A40D2B2817C0F23BE
S1130CA00B405B0105498C4663441A708268807C62
S1130CB0034B1B6F0121984710BDC04608510041EA
S1130CC0EC02002010B5837CFF2B02D0C27C5206BC
S1130CD000D410BDC27C4024A243C274826802487E
S1130CE0046F1800A047F4E7EC02002030B583B08D
S1130CF0837C01AC2525257025356570FF2B1BD021
S1130D00C47C640618D50F242340002916D05C0146
S1130D100E4DAC4664448025257101AC645C5901D8
S1130D200A4DAC466144CC715B0109498C4663446D
S1130D301C701100074B984703B030BD5C01034D94
S1130D40AC46644440256571E7E7C0460051004164
S1130D5008510041C50C000070B582B0837C0F229D
S1130D60134001AA04241470043454705D01002952
S1130D7031D01A0008325201324C145D6406640FFB
S1130D800A015219304DAA18957AEDB2022C2AD0D4
S1130D90AC0741D5C57C947A0226B443947201AA67
S1130DA0545C5A01294EB4466244D4715B01284A0A
S1130DB0944663441C7007232B40012B3FD1C37C12
S1130DC05B063CD5C37CDB09994238D0002219006C
S1130DD0204B984733E01A0008325201194C145D35
S1130DE007221440CCE7EC07D2D5947A0125AC4312
S1130DF0947201AA545C5A01144DAC466244D471F5
S1130E005B01134A944663441C704B1E9941C9B25A
S1130E100422104B984712E05A00521812010A4853
S1130E2082180020907201AA515C5A010748844636
S1130E306244D1715B01064A94466344197002B05E
S1130E4070BDC04600500041EC020020005100413A
S1130E5008510041ED0C0000F0B5C64600B50C4D3C
S1130E602C0074342935FF350A4B9846FF27002699
S1130E7003212000C047A774E6741434AC42F7D1B0
S1130E80602200210248044B984704BC9046F0BD00
S1130E90EC020020C50C000007340000F0B5C64683
S1130EA000B504000E00837C0F251D40002900D1ED
S1130EB0AAE06A015A4B9B1858698004800C238A63
S1130EC0584A934200D19AE0013B9AB2E37C072747
S1130ED01F40002E05D06B0153498C466344022108
S1130EE0D971A368C118A160636899424AD25B1A98
S1130EF09BB2E27C920635D5228A101C92B29A42A9
S1130F0000D9181C83B2984623689C466144424623
S1130F10E068464B9847E1686A01414B9B181961A8
S1130F206A013F4B9B185A6941468904890C920B0C
S1130F3092030A435A615A693D490A405A61002E94
S1130F4007D1012F59D04A226B013A498C46634498
S1130F501A706D01344B9C46654480236B7104BC4C
S1130F609046F0BD1A1C80208001834201D9324B87
S1130F701A8893B29846236859186A01284B9B181B
S1130F801961CDE7E37CDB060FD5E37C10229343A4
S1130F90E3746A01224B9B185A69920B92035A61BB
S1130FA05A6923490A405A61C9E7012F0ED06D01DD
S1130FB0224B9C4665444A232B70218A024091426D
S1130FC00BD0002120001E4B9847C8E76D011B4B36
S1130FD09C4665444B232B70EFE7E37C402293430C
S1130FE0E374A07C0E4BDB6EA16898470028B6D151
S1130FF0E37C40221343E374E3E74E22A4E7E77C57
S113100007231F40074A66E7038A064A00209342E3
S113101000D059E7E37C07271F400020014A60E71E
S1131020EC020020FF03000000510041F5330000F2
S1131030FF3F00F0095100415A3E000008510041B1
S1131040C50C0000F8B5DE4657464E464546E0B5A9
S113105004008846837C0F251D40002957D06A016F
S11310607D4B9B185A681201920C92465F68BF042C
S1131070BF0CBB46068A794B9E4200D1CDE0013EAF
S1131080B6B25F463740E37C07221A409146434696
S1131090002B05D06B01724A944663440122DA7135
S11310A0E37C9B060FD56368002B39D0A0681B1A1C
S11310B09BB2226894466044E1681A00BB4200D99E
S11310C03A00684B98476368002B29D04246002AAF
S11310D042D0228ABA423FD9E37C10229343E3747C
S11310E0A3685B44A3604B46012B00D187E06B01EE
S11310F05D4A9446634425221A70002D02D1564B52
S1131100E2681A6000212000584B984759E0068A8B
S1131110524B9E4200D18EE000239B469A46AEE796
S1131120E37CDB0600D47FE0E37C1022934320229F
S11311301343E374484A6B01E1689950218AD31838
S11311405A68890409094A4802400A435A605A689D
S1131150920B92035A6022E0A2685244A260934226
S1131160C1D99B1A9BB2E17C890630D5228A111C15
S113117092B29A4200D9191C8BB2E0686A013649CE
S113118050506A01344989184A689B041B0938483D
S1131190024013434B604B689B0B9B034B604346DD
S11311A0002B08D125224B46012B2FD06B0131494E
S11311B08C4663441A706D01294B9C466544402358
S11311C02B713CBC90469946A246AB46F8BD218A99
S11311D08B420AD9802189018B420DD8B3432168FF
S11311E08A1869011C480A50CBE78B42F7D2E17C8C
S11311F020200143E174F2E780239B01EFE76B01B8
S1131200194A944663442D221A7076E76A01124BF8
S11312109B1800229A762D32C8E7BF05BF0DC37C08
S113122007221A40914635E74346002B0CD1A368A8
S11312305344A36057E7C37C07221A409146002712
S113124000239B469A462BE7238ABB4200D943E7F7
S1131250A3685344A36046E7EC020020FF030000A8
S113126000510041F533000008510041C50C000055
S1131270FF3F00F00951004110B5314B9B78DB076B
S11312801FD42F4903228B781342FCD12C4B1B789B
S11312909B070ED52A4A137802218B431370110041
S11312A003228B781342FCD1254902228B78134206
S11312B0FCD10122224B1A70190002328B7813429E
S11312C0FCD11F4901228B781342FCD11D4B1E4ACD
S11312D01A665A669A66DA661A671C4B98471C4B5C
S11312E01B685A0B1F210A40980C01409B015B0F9D
S11312F01F2A1FD01F291FD0072B1FD092010A437A
S11313001B0313430E4A1385D37803210B43D37075
S1131310D3780C210B43D3700423137011000322E0
S11313208B781342FCD1064B064A5A6201221A8179
S1131330002010BD1A3ADDE70239DDE7023BDDE7A4
S113134000500041EC020020050C0000590E000082
S113135024608000104B9B789B071AD10E4903220E
S11313608B781342FCD10C4B1B78DBB29A0708D460
S113137002221343084A1370110003228B7813428C
S1131380FCD18022054B1A60054A034B1A830020C6
S1131390704711204042FBE70050004100E100E0AB
S11313A08D020000024A138901218B431381704787
S11313B00050004180231843014B98727047C04687
S11313C000500041F0B50F24044043B29C46002C69
S11313D054D02500002B07DB032319402700022CDF
S11313E050D91220404225E0A51CF5E76346002BA6
S11313F021DB7B00DB199B003B4C1B59002B66D186
S11314007B00DF19BF00384BFF58384BAE0074190E
S1131410A4001C198034276060337419A4001C19BB
S1131420A2842734013121707519AD005B1926336C
S113143018700020F0BD7B00DB199B002A4CE318D8
S11314405B68002B06D17B00DF19BF00264BDF1938
S11314507F68DAE77B00DB199B00234CE3185B8988
S11314609342F0DA13204042E4E714204042E1E7DB
S113147014204042DEE713204042DBE703231940F7
S113148000250027AB005B199E00184B9B1986337F
S11314901B78FF2BE9D10029A8D1002C04D0634686
S11314A0002B01DB0234E4B2A3001B199B000F4C98
S11314B0E41886342378FF2BDAD17B00DB199B00F8
S11314C0094C1B59002BD6D06346002BB3DB7B00A1
S11314D0DB199B00044CE3181B89934200DB8FE764
S11314E013204042A6E7C0465C3E0000EC02002008
S11314F0F8B505000F24044047B2002C10D020009A
S1131500002F02DB022C02D9F8BDA01CFAE706006A
S11315100130830018188000254B6033181802E04E
S1131520234874300026B3009B199A00204B9B1863
S113153086331B78FF2BE7D0F90F03221D4B984706
S1131540B3009B199A001A4B9B188033DA7907234E
S11315501340012B1BD0002F1FDB6D01164B9C4643
S1131560654480225200AB5C07218B43AB54104B83
S11315706033B1008A1992009A1827320020107043
S11315808E19B6009B192633FF221A70BCE7083562
S11315906D010022084BEA54E9E76401064B9C46BE
S11315A0644480225200A35C70218B43A354DEE781
S11315B0EC020020ED0C000000500041F0B5C646DE
S11315C000B50F22024040B2002A00D192E013007D
S11315D000280BDB110008325201AA4C155DEDB254
S11315E0022900D88DE012204042E5E0931CF1E787
S11315F076322A4275D1A34A90464444112080226F
S11316005200A0549A00D21895009F4A6032521991
S1131610928C95039D48054080208000824200D929
S1131620CDE00138FF38824200D913E1802A00D985
S113163000E1402A00D915E1202A00D902E1102A4C
S113164000D917E1F83890428041404206073543FB
S11316507D609504AD0CB9E070222A4244D18A48D9
S11316609E00F218920082188032D2795207520EEC
S11316701543844A9446644480225200A554603041
S1131680F618B6008019808C8504AD0C0132FF3247
S11316900723904214D8013AFF3A013B90420FD8F5
S11316A0013B80280CD8013B402809D8013B202865
S11316B006D8013B102803D8F83A8242924153429B
S11316C01B072B437B61802282235B00E254490188
S11316D06D4B591800238B7600206DE01220404298
S11316E06AE01420404267E01420404264E0142081
S11316F0404261E080235B00624AD55CEDB2002188
S113170000239A00D21894005F4A12198632127884
S11317109446FF2AE2D04C015B4A17199E00F61842
S1131720B60092198032D67907223240012A00D1BC
S11317305EE7002890DB6A07D9D153489E00F2186F
S1131740920082188032D2795207520F15434D4AC3
S11317509446644480225200A5546030F618B600C2
S11317608019858CAB03494818400132FF320723A6
S1131770954214D8013AFF3A013B95420FD8013BF8
S1131780802D0CD8013B402D09D8013B202D06D8D3
S1131790013B102D03D8F83AAA42924153421B0749
S11317A003437B6040220623FF33E2544901364B56
S11317B0591800238B72002004BC9046F0BDE02031
S11317C0C00505437D609504AD0C07200007284340
S11317D078610625FF354026665582277F008020E4
S11317E0E05529484901411800248C728C760F3445
S11317F061460C409900C918890041188031096874
S113180063011950C018416892041409204A0A401F
S1131810224342604268920B92034260194A9A182A
S1131820B021D15556551B4A9446634410221A7070
S11318300020C1E7A020C00505437D609504AD0CE0
S11318400520C3E7C020800505437D609504AD0CE9
S11318500320BBE7C020C00505437D609504AD0CA3
S11318600620B3E78020C00505437D609504AD0CD8
S11318700420ABE78020800505437D609504AD0C12
S11318800220A3E700500041EC02002000C0FF0F3B
S1131890FF3F00F009510041F0B50F23034040B26F
S11318A0C40F002B09D01A00002804DB022B05D931
S11318B01220404219E09A1CF8E70022012915D0B1
S11318C0002936D093009B189B00474AD2188632D1
S11318D012780F2313405B01444A94466344987979
S11318E01023A3401840431E9841F0BD1025A54085
S11318F0EDB23D49900083189B00CB1886331E78C7
S11319000F2333405E01394FBC4666447571202570
S1131910A540ECB25B01364DAC4663441C708218A2
S113192092008A188032D37908210B43D3710020A6
S1131930DBE793009B1899002B4B5B1886331B78CD
S11319400F210B405D012B498C46654483214900DE
S11319506E5CF639A14000200E42C6D0C9B20530F3
S1131960FF3029542021A140C8B25B01224EB44665
S1131970634418700823FF33EB5C0B4209D008233F
S1131980FF33E854073BFF3BA340DBB2822149000D
S11319906B5493009B189900134B5B188033D979CF
S11319A007230B40012B0BD093009A1892000E4B87
S11319B09B188033DA7908218A43DA71002094E78E
S11319C00633FF33E95CD63B0020194200D08CE794
S11319D093009A189200044B9B188033DA790821FB
S11319E08A43DA7181E7C046EC02002000510041CD
S11319F009510041005000410851004170B50D00EB
S1131A000F2318404401164B1B1919685B689B048B
S1131A109E0C02281AD8002D1BD0124B9C466444FD
S1131A2080235B00E35C112B16D10823FF33E35CB6
S1131A300020DB0600D470BD082228000A4B98471A
S1131A4010220823FF33E2543000F4E7122040420E
S1131A50F1E712204042EEE713204042EBE7C04694
S1131A60EC02002000500041F5330000F0B5DE46E2
S1131A7057464E464546E0B585B08046067A0F2364
S1131A80334076B2002B00D1D3E01800002E39DBAE
S1131A900400734A6032411C8D006D18AD00551965
S1131AA08100091889005218918C6E4A91422BD0FA
S1131AB04F1EBFB2424652681740022B00D9A4E021
S1131AC043461B686848834220D9981801906748A8
S1131AD084460198604519D89B0717D1002E32DB44
S1131AE0914200D9AFE0002F30D0A3001B199A0017
S1131AF05B4B9B1880331B68002B00D18BE00023C9
S1131B0099460FE0981CC3E70F00D3E7A3001B1905
S1131B109A00534B9B1880331B68002B00D177E04D
S1131B2001239946A3001B199A004D4B9B1880333F
S1131B30DB7902201B070CD505B03CBC90469946C6
S1131B40A246AB46F0BD00239946EBE70023994635
S1131B50E8E703A8464B9847A3001B199A00404B9B
S1131B609B188033DB795B0644D4A3001B199B00CC
S1131B703B4A93469B4480235B449A46DB7940224C
S1131B8013435246D37103A83A4B98475B464246E7
S1131B9012685A67424652689A6700235A46D367C6
S1131BA0F20FD2015346D9797F230B4049464901AC
S1131BB01343202293430B435246D37143465B7A2B
S1131BC00022002B02D07A427A41D2B2A3001C191F
S1131BD0A400234B1B1980331201DF7910218F439A
S1131BE01743DF71002E0ADB00212800224B98479F
S1131BF00020A1E703A81F4B984701209CE7002180
S1131C0028001E4B9847002096E71220404293E795
S1131C101320404290E7122040428DE713204042B7
S1131C208AE743465A689705BF0D0D4D7435002465
S1131C3046E70B4A6032918C0A4A9142F1D0084D32
S1131C407435002434E7A3001B199A00044B9B1835
S1131C5080331B68002BE1D00123994662E7C0461C
S1131C60EC020020FF030000FFFFFF1FFF0F002016
S1131C701504000023040000451000009D0E000020
S1131C800B1E06D0012806D0002801D1034A136692
S1131C907047034BF6E7014A5366F9E7EC0200206C
S1131CA0050C00000B1E08D0002808D0012809D01C
S1131CB0022806D1054A136703E0054BF4E7034AFB
S1131CC093667047014AD366FBE7C046EC020020E6
S1131CD0050C0000F8B5824B1E8CB6B2002E03D062
S1131CE0804C74340025B9E0998B1B8B0B405A0748
S1131CF017D49A051CD41A063ED470221A4244D131
S1131D001A075ED4DB07EBD5754B774A9A839A8220
S1131D10923AFF3A1A83734B5B6E00210420984772
S1131D2005E004226E4B9A836E4B1B6E9847F8BDF8
S1131D306B4B6D4A9A839A82923AFF3A1A83694BA3
S1131D401B891B071B0F032B0CD0664B1B8D1B071A
S1131D501B0F00216F3A032B05D0624B5B6E0320EF
S1131D609847E4E7002252015E4B9B181989490405
S1131D70490D00221A81F0E78022594B9A83594B6E
S1131D805B6E002105209847D1E7554B9A839A82D0
S1131D90554A1A83554B9B8C9B060CD45349323AB3
S1131DA0FF3ACB681340D02BFBD14E4B5B6E002126
S1131DB002209847BBE74D491022CB681A42FCD059
S1131DC0F3E7474B0021802252009954F83A9A8352
S1131DD068329A82444A1A83454B9847414B5B6E5A
S1131DE0002101209847A2E7CB0607D44B0608D46C
S1131DF08B062ED500213F4B98472AE03E4B98474F
S1131E0027E001213B4B984723E04B060ED40B07F8
S1131E1010D48B0712D407231A40012A19D14B0777
S1131E2010D4CB0615D5344B984712E00121314B21
S1131E3098470EE00121314B98470AE00121304BCD
S1131E40984706E000212D4B984702E00021294BDA
S1131E50984701351434092D00D168E72000A17C8E
S1131E60FF29F6D00F230B40012199400E42F0D0F8
S1131E705901244FBC466144C9795B01224FBC46D9
S1131E8063441B781940E4D0AB005A199200154BF7
S1131E909C4662447032D27D47231340012BA3D069
S1131EA053B2002BB1DB8B06D0D44B070CD4CB0739
S1131EB00ED407231A40012ACBD10B070CD4CB062E
S1131EC0C7D50D4B9847C4E700210C4B9847C0E792
S1131ED001210E4B9847BCE70121084B9847B8E70E
S1131EE000500041EC020020010200000008004004
S1131EF0590E0000950C0000090C0000590D00005B
S1131F009D0E0000005100410951004145100000A0
S1131F10F0B5CE46474680B58DB09D4B98479D4B56
S1131F2098479D4AC023DB059A61FA20C0009B4B69
S1131F309847002398469A4B9946C026F605994F30
S1131F40ABE0994D8023DB002B60934BB361974B3F
S1131F50984700232B602B71A04607E0904B1B7819
S1131F60002B03D14346002B00D0A7E08C4B1B78F9
S1131F70002B39D08E4C06E002218E48B8478E4B98
S1131F801B78002B1CD1012104A8A04700282BDDBD
S1131F9004AB1B780D2BEFD00A2BEDD0082B17D0F8
S1131FA07F2B15D0844A12783E2AECD8501C8249E3
S1131FB0087082498B54012104A87A4B9847E2E7C0
S1131FC07E480025C5547E4B98477B4B1D70DAE74D
S1131FD0794B1B78002BD6D0013B774A1370032131
S1131FE07848704B9847CEE701A8774B98473468F8
S1131FF0764B1A6A336953401C40544001A8744B11
S11320009847E30365D46C4B5B78FF2B61D00133B5
S1132010694A537000230093009A6E4B9A4206D883
S11320201A00009B01330093009B9342F9D95E4B45
S11320301B79002B0DD05C4B5B79002B00D1A1E008
S1132040594A136801331360574A13689B059B0D63
S11320501360514B7361544B1A6893059B0DB36124
S11320604F4B1B78002B14D04346002B11D04E4B02
S11320709B689A420DD0584904A8584B984704A825
S1132080574B9847010004A8464B9847464B1A689B
S11320909A60454B9889414B98474B461C78E4B26B
S11320A0002C00D15AE74346002B00D149E73C4BB2
S11320B01D78EBB29846002B00D057E73A4B01222B
S11320C01A718022D2001A60334BB3610023984600
S11320D04CE702A83C4B984734683C4B1A6A336976
S11320E053401C40544002A8394B9847E30328D579
S11320F0314B5B78002B24D0132B17D82A4A137941
S113210001214B4013712C4B9B78002B0AD00022E9
S1132110294BDA70244B204A1A60B26101221A71E9
S11321205A710AE00122244B9A7006E01E4B5A7938
S113213001214A405A7101221A7100221E4B5A7021
S113214075E703A8204B98473468204B1A6A336913
S113215053401C40544003A81D4B9847E30300D44C
S113216065E7154B9B78002B00D160E7124AD378C2
S11321700133DBB2D370052B00D858E700220E4B95
S11321809A7054E7084A1368013B13605CE7C04641
S113219015010000F52E0000FF03000031040000CB
S11321A01E050020BD2F0000000000204530000067
S11321B0112F0000E4400000D4040020F0050020AA
S11321C0C9300000803E00001504000000440041B6
S11321D023040000BF270900843E000019340000D6
S11321E071340000F0B583B006000C0015000A78C5
S11321F053069B0F012B00D06CE0097963791B0215
S11322000B433B490978994203D0394949789942AB
S113221063D152B2002A0EDBA779E3791B021F4374
S1132220344B98476378202B18D0222B3CD00D20B8
S1132230404203B0F0BD012D52D06378212B51D11F
S1132240A279E3791B021343072B4ED10023072203
S1132250274908313000284CA047EAE7072F34D13A
S1132260002D1AD0072201006846244B9847204BC2
S11322701B69002B05D06846984703000020002BFB
S1132280D7D01B4A1300009991606A4692889A81BC
S11322906A4692799A730020CBE700230722010053
S11322A03000154CA047C4E7002300220021002081
S11322B0114DA8470E4B5B69002B09D0A278E0783A
S11322C00002104398470020B3E701204042B0E7E2
S11322D00020AEE70A204042ABE70A204042A8E7CC
S11322E00020A6E70D204042A3E701204042A0E7DA
S11322F0D80400205D2C00000D270000F5330000F9
S1132300F0B5DE4657464E464546E0B583B0160066
S1132310012968D000290BD0022900D193E00D20B7
S1132320404203B03CBC90469946A246AB46F0BD41
S1132330836898461068002800D187E00193012340
S113234043449B46474F484B99468278437908213A
S11323508B43022B02D00A204042E2E701998A46CD
S11323600B789A4275D0FF2B76D10A7005227168DA
S11323703E4B9847041E1ED130680378C0180422CF
S113238071683A4B9847019B5B4527D0019B013309
S113239001930028D9D10A204042C2E753469D70D8
S11323A02800314B98473460207820187168304BEE
S11323B09847041EE0D0A57863791B022279D218CD
S11323C092B2E1782800B847002848D16BB2002BBC
S11323D0E4DB43461D712800C847E4E70122254B8E
S11323E05A7100209DE78468002A08D013685B793D
S11323F008229343022B02D00A20404291E723781B
S1132400FF2B08D0FF232370A078FF2803D01A4B9A
S11324109847FF23A3706378FF2B08D0FF236370D2
S1132420E078FF2803D0144B9847FF23E37020790A
S1132430FF2803D0104B9847FF23237100220D4B34
S11324405A7100206DE71B2040426AE70A2040428F
S113245067E71220404264E71C20404261E71420F1
S113246040425EE755070000E9070000792C0000B0
S1132470AF2C0000D8040020BD07000010B50A4BA3
S1132480984701280CD80948094BC36100621830E9
S1132490084B984708490120084B9847002010BD75
S11324A011204042FBE7C046692C0000D8040020FC
S11324B001230000012C000010000020692B000003
S11324C010B50400074B5B79002B07D0054B187936
S11324D000230A002100044CA04710BD11204042F3
S11324E0FBE7C046D80400200D27000010B5040007
S11324F0074B5B79002B07D0054BD87801230A00E2
S11325002100044CA04710BD11204042FBE7C04607
S1132510D80400200D27000010B5012810D0002891
S113252006D0022814D0032816D00D20404206E01D
S11325300B4B18790A0002210A4B9847002010BD62
S1132540074BD8780A000221064B98470020F6E78B
S1132550034B19610020F2E7014B59610020EEE7BB
S1132560D8040020C509000010B5064B1C69002CD6
S113257007D0002201212000636898472468002CBA
S1132580F7D110BDFC04002070B506000D00074B08
S1132590DC68002C03D170BD2468002CFBD0636878
S11325A0002BF9D0290030009847F5E7FC040020FF
S11325B0F8B507000E0015000D4B9C68002C04D1E3
S11325C0002011E02468002C0DD06368002BF9D0A2
S11325D02A00310038009847002806D00A30F1D08C
S11325E00120404200E00020F8BD0120FCE7C04685
S11325F0FC04002010B5064B5C68002C03D110BD10
S11326002468002CFBD06368002BF9D09847F7E7C7
S1132610FC04002010B51400002903D0012929D09E
S1132620002010BD1378002BFAD15378052B11D05C
S1132630092BF5D19278124BDA76A378E178090266
S113264019434B1E994103310D4B997601200D4BD3
S11326509847E5E790780C4B9847A378E17809020E
S113266019434B1E99410231054B99760120054BC4
S11326709847D5E7012221000020044B9847CFE773
S1132680FC0400208925000049070000B125000052
S113269010B50D4B98470D4C0223A3760023E37627
S11326A0637700200A4B9847207F0A4B98470A4AD1
S11326B000210020094CA047094A02210020A0471C
S11326C00020084B984710BD69250000FC04002039
S11326D0BD070000A907000029270000C509000064
S11326E015260000E907000010B5002802D00128D3
S11326F004D010BD0020034B9847FAE7024B9847DB
S1132700F7E7C046892500009126000010B584B083
S113271001AC01910292207263722000014B984730
S113272004B010BD35080000F0B5C64600B584B04D
S113273005000C000022B54B9847431C0DD0012323
S113274001280BD022781F23110099430BD0CBB260
S1132750802B00D1F8E0002300E00023180004B02F
S113276004BC9046F0BD63780B2B00D9E4E19B00D8
S1132770A749CB589F460123002200212800A54CDD
S1132780A04743424341DBB2E8E7A278002A1AD0CB
S1132790A14B1B6859681868A04B9847002800D1C2
S11327A0D4E1C3781B028178C91889B24118039116
S11327B004229B4B98470290002806D0FF24964F92
S11327C0974B98461AE0974B984701230022002123
S11327D02800904CA04743424341DBB2BEE734009B
S11327E000E0340002980378C0180290039B019320
S11327F004221900C04702900028E6D08678A64239
S1132800F0D03C69002CEAD002AA002120006368C1
S113281098470028E5D02468002CF5D13400E1E77E
S11328201F231A400023022A98D1A379E2791202C5
S11328301A430023002A00D090E7207900217A4B24
S113284098470123002200212800724CA04701234D
S113285084E71F231A400023022A00D07EE7A379CD
S1132860E27912021A430023002A00D076E7207985
S113287001216D4B98470123002200212800654C5B
S1132880A04701236AE7A378E5782D021D43237945
S1132890647924021C43604A1368D27E596818681C
S11328A05E4B9847002847D00290C3781B0281787A
S11328B0C91889B2411803910422594B984700283A
S11328C03CD0574E08E002980378C01802900422C6
S11328D00399B047002833D08378A342F3D1C37857
S11328E0AB42F0D102904C4B1E69002E2AD002AAB2
S11328F00121300073689847002804D03668002E00
S1132900F5D100232AE7736802AA00213000984712
S11329100023002800D021E7002D05D03E490122E4
S1132920A2404B7F13434B77002300220021002059
S1132930384CA047012311E700230FE700230DE7DC
S113294000230BE7002309E76378062B33D0D9B2C1
S1132950062922D9082B00D1AFE00A2B00D0EDE0E4
S11329602D4B5A7F217963791B020B431A41D307FC
S113297000D4CAE0284B1D690023002D00D1EDE6E8
S11329802200022128006B689847002800DBC8E079
S11329902D68002DF4D10023E0E6002B00D0CDE01B
S11329A01F231A40D3B2012B00D892E0022A00D18F
S11329B09FE00023D2E6A378E27812021A43130AB6
S11329C0022B33D0032B56D0012B01D00023C5E6B4
S11329D0A279E3791B0213431A1C122B00D9122289
S11329E094B20D4B1B685968186801220C4B984728
S11329F0002800D1A4E00023220001002800054C97
S1132A00A04743424341DBB2A8E6C046B1250000DB
S1132A10943E00000D270000FC040020F52C00006B
S1132A20792C0000692500005D090000A379E6798E
S1132A3036021E43464B1F7F1B680132D2B25968CF
S1132A401868444B9847011E7CD0C3781B028478D5
S1132A50E418A4B20023A64205D9013F3E407342C4
S1132A607341DBB22600320028003B4CA0474342AE
S1132A704341DBB272E6A379E179090219430C0000
S1132A80334B1E7F1B68D2B259681868334B984782
S1132A90011E59D002780023944206D9731E2340A4
S1132AA0180043424341DBB21400220028002A4CA0
S1132AB0A04743424341DBB250E6254BDA7E5969D5
S1132AC00A705969002301222800234CA0470123DE
S1132AD044E6002302931E4C022202A96069204BA3
S1132AE0984761690023022228001B4CA047012358
S1132AF034E6207902211B4B9847002803DB01238D
S1132B0018400290E7E7002328E6114B0022596998
S1132B100A7059690023013200200F4CA047012399
S1132B201CE60B4B5A6910705969002301220020DE
S1132B30094CA047012311E600230FE600230DE60C
S1132B4000230BE6002309E6002307E6002305E63D
S1132B50FC040020F52C00000D2700005D2D000072
S1132B60F53300005D09000010B5012809D00028E4
S1132B7002D002280AD010BD07480430074B9847FA
S1132B80F9E705480830054B9847F4E702480C304C
S1132B90024B9847EFE7C046FC040020410A0000BE
S1132BA070B50400431E9841C0B20C4A0C490D4B49
S1132BB098470D4B984700280EDB0C4D202200212E
S1132BC028000B4B98476C610A4900200A4CA04727
S1132BD00A490120A047002070BDC04655030000EB
S1132BE0C43E0000150A0000C1060000FC040020D9
S1132BF007340000F525000025070000E926000041
S1132C0010B5010002481030024B984710BDC04671
S1132C10FC040020410A000010B50B4B9B7E002BE6
S1132C200CD100280DD0084B18600268D2791A77AD
S1132C3001229A76054B9847002010BD042040429B
S1132C40FBE709204042F8E7FC04002031070000BC
S1132C5010B5014B984710BD3D070000014B586962
S1132C607047C046FC040020024B987EC30600D582
S1132C7010207047FC04002010B5884211D203785C
S1132C80012B10D9447894420AD0C018814206D945
S1132C900378012B09D944789442F6D100E000204E
S1132CA010BD0020FCE70020FAE70020F8E7884286
S1132CB015D20378012B14D94278042A13D0052A9B
S1132CC00CD0C018814208D90378012B0DD9427861
S1132CD0042A0CD0052AF4D100E00020704700201B
S1132CE0FCE70020FAE70020F8E70020F6E70020E0
S1132CF0F4E7000070B50C0015000222164B98474B
S1132D0000281DD084421CD90378012B1BD9437899
S1132D10022B1AD14379AB4212D0C27812028378C3
S1132D209B189BB2C018844209D90378012B0ED991
S1132D304378022B0DD14379AB42EED100E0002061
S1132D4070BD0020FCE70020FAE70020F8E700202F
S1132D50F6E70020F4E7C046792C0000F8B50D0032
S1132D601700884212D200240A4E03222900B047D9
S1132D7000280ED00378012B0AD9A74209D00134C8
S1132D80E4B2C0188542F0D8002002E0002000E040
S1132D900020F8BD792C00000022024B1A7000209C
S1132DA07047C0461C05002010B50122034B5A7021
S1132DB040210348034B984710BDC0461C05002022
S1132DC030060020C124000010B582B0031C01AA03
S1132DD01080DB0705D40022084B9A70002002B053
S1132DE010BD07490020074CA04707490120A04710
S1132DF0064B98470122014B9A70EFE71C0500200F
S1132E00112E000019250000992D0000A92D0000A5
S1132E1070B582B014000025002902D0280002B049
S1132E2070BD214B00225A705B684026F61AF6B238
S1132E3001A81E4B98470135A64223D3002C2FD05E
S1132E40194A506813181A4909781972431C5360B7
S1132E50402B27D022180021134C0834C043144EB1
S1132E609A420CD0C118891949781955013329009F
S1132E70402BF5D140220C4B5A60002502E000297A
S1132E800BD100254022002109480A4B984701A88C
S1132E90094B9847094B9847C0E7034A5360F0E74A
S1132EA00025EFE70025EDE71C05002015040000D0
S1132EB0300600200734000023040000A92D000080
S1132EC010B506484830064B9847064B98470648C5
S1132ED0064B9847064B984710BDC0461C0500207A
S1132EE0A12B00007D24000018000020192C0000F4
S1132EF0512C000010B5034B984703490320034BA2
S1132F00984710BDC12E0000C92D000019250000EE
S1132F10F0B585B007000C00224B5D6800230193D7
S1132F20002D24D08D4225D301916D1A03A81E4B88
S1132F30984722001B49083138001C4B9847002D44
S1132F4022DD184E3700083739192A003800174B8C
S1132F50984773685A1B78190021154B9847756078
S1132F6003A8144B98470F4B5B78002B16D001989D
S1132F7005B0F0BD019503A80B4B98472A000949F9
S1132F8008313800094B9847064C20000830626825
S1132F900021074B984700236360E1E7064B9847FD
S1132FA0E5E7C0461C05002015040000F5330000C9
S1132FB00734000023040000A92D0000F8B5DE4604
S1132FC057464E464546E0B580460F1E2BDD194B4D
S1132FD09B78002B27D00025174E164B9B460123C8
S1132FE09A46164B99465C4609E00022124B9A60B9
S1132FF00135AF4217DD0F4B9B78002B13D04346AE
S11330005A5DB368591CB160F3181A735B46524693
S11330101A700B48C847074A1378002BE5D0A378E9
S1133020002BF9D1E1E738003CBC90469946A24612
S1133030AB46F8BD1C0500209C050020ED240000D3
S1133040A805002070B502211348144CA047322172
S11330501348A04732211348A04732211248A04701
S113306032211248A04732211148A0473321114888
S1133070A047C826B60030000F4DA84715210F48B9
S1133080A0473000A84718210D48A0473000A847A2
S113309020210C48A04770BDE4400000BD2F000073
S11330A0DC3E0000103F0000443F0000783F000079
S11330B0AC3F0000E03F0000310400001840000075
S11330C0304000004C40000070B505000078002836
S11330D007D02C00534EB0472070013420780028CC
S11330E0F9D151492800514B9847002822D0504922
S11330F028004E4B9847002821D04E4928004B4BBE
S11331009847002820D004224B4928004B4B98476D
S113311000282DD1281D2B79302B1AD00A2200210A
S1133120474B9847474B98421DD804214648474B84
S1133130984703E004214448444B984770BD042158
S11331404148424B9847F9E704213F483F4B984791
S1133150F4E76B7920229343582BDFD1103A0021F6
S1133160374B9847DEE705213948384B9847E5E760
S1133170062238492800314B984700281DD1A81D44
S1133180AB79302B0AD00A2200212D4B9847002816
S11331900ED004212C482D4B9847CFE7EB79202201
S11331A09343582BEFD1103A0021254B9847EEE773
S11331B005212748254B9847C0E7274928001B4B82
S11331C09847002804D003212448204B9847B5E7AA
S11331D0022123481D4CA04724212248A047242132
S11331E02148A04724212148A04724212048A04762
S11331F024212048A04724211F48A04724211F48F8
S1133200A0470E211E48A04742211E48A047232163
S11332101D48A0471B211D48A04739211C48A04731
S11332208CE7C046D93500006C4000005D340000D6
S1133230744000007C400000844000007F340000A3
S1133240B1350000FF03000044400000BD2F000022
S11332508C400000944000009C400000404200006C
S1133260E4400000A4400000CC400000E84000001E
S1133270004100001C4100003441000050410000A6
S11332807041000080410000C4410000E84100009A
S113329004420000002243088B4274D303098B428A
S11332A05FD3030A8B4244D3030B8B4228D3030C12
S11332B08B420DD3FF22090212BA030C8B4202D3B4
S11332C01212090265D0030B8B4219D300E0090ADC
S11332D0C30B8B4201D3CB03C01A5241830B8B42E5
S11332E001D38B03C01A5241430B8B4201D34B03CE
S11332F0C01A5241030B8B4201D30B03C01A524133
S1133300C30A8B4201D3CB02C01A5241830A8B42B7
S113331001D38B02C01A5241430A8B4201D34B02A0
S1133320C01A5241030A8B4201D30B02C01A524104
S1133330CDD2C3098B4201D3CB01C01A52418309B8
S11333408B4201D38B01C01A524143098B4201D3F2
S11333504B01C01A524103098B4201D30B01C01A1D
S11333605241C3088B4201D3CB00C01A5241830897
S11333708B4201D38B00C01A524143088B4201D3C4
S11333804B00C01A5241411A00D201465241104624
S11333907047FFE701B5002000F006F802BDC04603
S11333A00029F7D076E770477047C04670B500260D
S11333B00C4D0D4C641BA410A64209D1002601F04B
S11333C011F80A4D0A4C641BA410A64205D170BD25
S11333D0B300EB5898470136EEE7B300EB58984733
S11333E00136F2E7F0430000F0430000F043000030
S11333F0F4430000002310B59A4200D110BDCC5C08
S1133400C4540133F8E703008218934200D1704793
S113341019700133F9E700000EB410B59DB002A98C
S1133420029008610B488224886048610120404270
S11334301FABC881084804CBA400006801938C81A9
S113344000F0BAF90023029A13701DB010BC08BC36
S113345003B01847FFFFFF7F7800002002780B7845
S1133460002A03D0013001319A42F7D0D01A7047B4
S11334700023C25C0133002AFBD1581E704700238D
S113348030B59A420AD0013AC45CCD5CAC4204D156
S11334909A4202D00133002CF6D1631B180030BDD0
S11334A0F0B51F000E0087B00590039101920C98AF
S11334B0347800F09EF8082200194378751C1340F4
S11334C00CD12D2C0CD101332C780293B51C002F78
S11334D00CD0102F14D1302C0AD011E02E00E6E7C6
S11334E002932B2CF3D12C78B51CF0E7302C2FD180
S11334F020222B789343582B54D110276C78023513
S1133500012039004042FFF7C5FE060001203900C2
S11335104042FFF745FF00230491012101221800D6
S11335208C46524221003039092913D80C00A74295
S11335301EDD002B1ADB1300864206D302D1049948
S1133540A14202DB6346784320182C780135E9E771
S11335500A27D5E721004139192901D8373CE6E784
S113356021006139192903D8573CE0E71300ECE73F
S1133570002B09DA22230120059A40421360019BA3
S1133580002B0BD107B0F0BD029A002A00D04042B4
S1133590019A002AF6D0039A002B00D06A1E019BE0
S11335A01A60EFE73024002FAAD10837A8E70000FB
S11335B037B51300064A05001068046A002C00D1D0
S11335C0044C0A0000942900FFF76AFF3EBDC04680
S11335D078000020DC00002010B5040000F00CF896
S11335E00322001943781340022B00D1203C200011
S11335F010BDEC3000687047044B1B681B6A002B3D
S113360000D1034BEC3318687047C04678000020A3
S1133610DC00002082B0002900D101A9101E06D0D0
S1133620002B06D013780B601078431E984102B02B
S1133630704702204042FAE7032370B5CD1C9D4336
S1133640083506000C2D1ED20C25A9421DD83000C9
S113365000F079FB254A14682100002919D1244C73
S11336602368002B03D1300000F032FB20602900D6
S1133670300000F02DFB431C2CD10C2330003360B0
S113368000F062FB03E0002DDFDA0C23336000203E
S113369070BD0B685B1B1AD40B2B03D90B60CC18C1
S11336A0256003E08C420ED163681360300000F0A3
S11336B04BFB200007220B30231D9043C31AE7D095
S11336C05A42E250E4E74B6863600C00EEE70C00FA
S11336D04968C2E70323C41C9C43A042E0D0211ADA
S11336E0300000F0F5FA431CDAD1C6E7E805002003
S11336F0EC050020F0B58E6885B007000C0003923D
S113370001939E4239D890238A89DB001A4234D02F
S11337100325096923685B1A0293636902985D4370
S1133720EB0F5D19019B6D1001331B18AB4200D9DF
S11337301D00530532D529003800FFF77DFF061E12
S113374009D10C233B6040230120A289404213434A
S1133750A38105B0F0BD029A2169FFF74BFEA3894E
S1133760144A1A4080231343A381029B2661F6184E
S113377026606561019EED1AA560019BB34200D2EB
S11337801E0032000399206800F0CBFAA3680020E1
S11337909B1BA36023689E192660DAE72A00380081
S11337A000F01EFB061EE0D12169380000F0CEFABD
S11337B0C7E7C0467FFBFFFFF0B59FB002900593BB
S11337C08B890F0016001B0611D50B69002B0ED137
S11337D04021FFF731FF38603861002805D10C2300
S11337E0029A013813601FB0F0BD40237B610023AF
S11337F006AD6B6120336B761033AB7634002378DF
S1133800002B47D1A31B04930DD0A31B3200390016
S11338100298FFF76FFF431C00D1B5E06A69049B6F
S1133820944663446B612378002B00D1ACE0012201
S1133830002352426A6002A95432521801342B60A8
S1133840EB60AB601370AB65584E052221783000F5
S113385000F05CFA621C002820D12968CB0604D54C
S1133860532302AE20309B1918700B0704D5532341
S11338702B2002AE9B19187023782A2B16D0002017
S11338800A21099B2278303A092A55D9002815D0F3
S1133890099313E0252BB5D00134B0E70123801B35
S11338A08340296814000B432B60CDE7059B181D4A
S11338B01B680590002B39DB0993140023782E2B09
S11338C00BD16378621C2A2B3ED1059B02341A1D4E
S11338D01B680592002B34DB0793354E21780322B5
S11338E0300000F013FA002806D04023801B8340E8
S11338F02A68013413432B60217806222D48661C64
S1133900297600F003FA002846D02B4B002B2FD148
S11339102968059B0722C90528D59B1893430833BA
S113392005936B69039A9B186B6167E75B42EB60D5
S113393002230B432B60C0E74B4301349B18012047
S1133940A0E701235B42C7E7002314000A201A0002
S11339506B6021783039092903D9002BBDD0079237
S1133960BBE74243013452180123F2E70733D5E79A
S113397005AB00933A00114B2900029800E000BF08
S11339800390039B0133CCD1BB890B985B0600D415
S113399029E70120404226E705AB00933A00074B94
S11339A02900029800F07AF8EAE7C046AE42000027
S11339B0B4420000B842000000000000F5360000E8
S11339C0F7B5150001938A680B6900900C009342C7
S11339D000DA130022002B6043321278002A01D04F
S11339E001332B6023689B0602D52B6802332B60BE
S11339F0062723681F4027D0230043331B785A1E11
S1133A0093412268920630D42200019943320098EF
S1133A10089EB047431C25D0062320682A68E16825
S1133A2003400025042B03D18D1AEB43DB171D4003
S1133A30A3682269934201DD9B1AED180027BD4259
S1133A4020D1002010E00137E3682A689B1A9F42C6
S1133A50D2DA22000123193201990098089EB04756
S1133A60431CF0D101204042FEBD3020E118433117
S1133A70087021005A1C45310978A21843320233D8
S1133A801170C1E7220001231A3201990098089E9F
S1133A90B047431CE6D00137D1E70000F0B58BB046
S1133AA006920A0043320793059004920A7E0C00A2
S1133AB0109B6E2A00D18FE017D8632A2CD008D827
S1133AC0002A00D199E0582A54D026004236327098
S1133AD029E0642A01D0692AF7D121681A68080606
S1133AE023D5111D1960156825E0732A00D188E0DB
S1133AF008D86F2A29D0702AE7D1202209680A43FE
S1133B00226003E0752A20D0782ADED122007821B1
S1133B10453211706C4A30E00E001A684236111DAD
S1133B20196013683370012379E04906D9D5111D52
S1133B3019600023D55E002D03DA2D23049A6D420B
S1133B401370624B0A2703932FE020681968050657
S1133B5003D5081D18600D6805E04006F9D50D6809
S1133B60081D1860ADB2594B082703936F2A18D06B
S1133B700A2716E045310A70544A03921A682168EC
S1133B80101D18601568080622D5CB0702D520231E
S1133B90194321601027002D03D1202322689A4362
S1133BA022602300002243331A706368A360002B51
S1133BB05CDB0422216891432160002D58D1049ECE
S1133BC0002B64D02600039B42361B7833705EE0E2
S1133BD04806DAD5ADB2D8E709681A68080605D5EB
S1133BE0111D1960136862691A6006E04906F7D569
S1133BF0111D19601368A28A1A800023049E236190
S1133C0054E01A68111D19601668002162683000BA
S1133C1000F07CF8002801D0801B60606368236199
S1133C200023049A137041E0236932000699059831
S1133C30079DA847431C43D0236800259B070FD446
S1133C40099BE06898423DDA18003BE0220001231A
S1133C50193206990598079EB047431C30D00135A8
S1133C60E368099A9B1A9D42F0DBE9E7002DA9D08D
S1133C70049E28003900FFF793FB039B013E5B5C25
S1133C80280033703900FFF705FB051EF1D1082F1A
S1133C9009D12368DB0706D563682269934202DCF5
S1133CA03023013E3370049B9B1B2361079B09AAAD
S1133CB000932100069B0598FFF782FE431CB3D1B5
S1133CC0012040420BB0F0BDD0420000BF420000D2
S1133CD0002370B5064C050008002360FCF7D0FEF5
S1133CE0431C03D12368002B00D02B6070BDC04659
S1133CF0700600200B1E04D0FF2A04D98A23036017
S1133D008B3B180070470A700123FAE7C9B2821886
S1133D10904201D10020704703788B42FBD00130E0
S1133D20F6E710B5884202D98B18984208D30023CD
S1133D309A4207D0CC5CC4540133F9E78B5C8354BA
S1133D40013AFBD210BD70477047000070B5050002
S1133D50002910D00C1F2368002B00DAE418280077
S1133D60FFF7F1FF1D4A1368002B05D1636014604F
S1133D702800FFF7E9FF70BDA34209D92168601844
S1133D808342F3D118685B6841182160EEE71300A1
S1133D905A68002A01D0A242F9D919685818A042D9
S1133DA00BD120680918581819608242E0D11068B4
S1133DB05268411819605A60DAE7A04202D90C230C
S1133DC02B60D5E721686018824203D110685268DD
S1133DD04118216062605C60CAE7C046E8050020C3
S1133DE0F8B507000D001600002905D11100FFF7F2
S1133DF023FC04002000F8BD002A03D1FFF7A6FF2E
S1133E003400F7E700F012F82C008642F2D93100B2
S1133E103800FFF711FC041EECD029003200FFF734
S1133E20E9FA29003800FFF791FFE3E70B1F1B684D
S1133E30181F002B01DA0B58C01870472E2E2F685C
S1133E40616C2F7574696C732F7372632F75746949
S1133E506C735F6C6973742E6300002094040020FB
S1133E600000000040000000540400200000000096
S1133E704000000014040020000000004000000086
S1133E8008200800434F554E543A20256C750D0AFE
S1133E9000000000382B000020280000382B000010
S1133EA052280000382B000076270000382B000031
S1133EB0382B0000382B00008A270000382B000024
S1133EC0862800002E2E2F7573622F646576696331
S1133ED0652F75736264632E63000000277C7C5C2D
S1133EE02020202F7C7C60207C27277C7C27277C3B
S1133EF020277C7C272727277C202E7C2727272701
S1133F002C20277C7C20207C7C60200D0A00000073
S1133F10207C7C5C2E2F2F207C7C20202020207C69
S1133F207C20202020207C7C2020202E20207C7CB3
S1133F30202020202020207C7C20207C7C20200D20
S1133F400A000000207C7C20202020207C7C202073
S1133F502020207C7C20202020207C7C2727277C7C
S1133F6020207C7C202020202020207C7C27277C73
S1133F707C20200D0A000000207C7C2020202020B2
S1133F807C7C20202020207C7C20202020207C7C05
S1133F902020202020207C7C202020202020207C09
S1133FA07C20207C7C20200D0A0000002E7C7C20BC
S1133FB0202020207C7C2E2020202E7C7C2E202063
S1133FC0202E7C7C2E2E2E2E7C20607C2E2E2E2EBF
S1133FD027202E7C7C20207C7C2E200D0A000000D3
S1133FE00D0A4D6F6E74616E6120546563682045DF
S1133FF06C656374726963616C20456E67696E6594
S11340006572696E672042696E61727920436F75CB
S11340106E7465720D0A00000D0A4350553A204132
S11340205453414D443231453135420D0A000000AC
S1134030436C6F636B2053706565643A2034382099
S11340404D487A204F4B0D0A0000000054797065EA
S1134050202768656C702720666F7220636F6D6D12
S1134060616E6420696E666F2E0D0A0053544F50C2
S113407000000000434F554E540000005354415279
S11340805400000053455420000000004552520DD6
S11340900A000000535045454420000048454C5058
S11340A000000000205F5F20205F5F20205F5F5FD3
S11340B05F202020205F5F202020202020205F5FC1
S11340C05F5F202020200D0A000000002F202F20F9
S11340D02F20205F60202F2020202020202F202030
S11340E05F6020200D0A000020205F2020204C5F0C
S11340F020202020202020204C205C720A00000078
S1134100202020205F20202020205F4C2020202001
S11341105F5F20202C5F5F2F0D0A000020202020ED
S1134120202020204C2020204C205C20202F200DFB
S11341300A000000202020205F205F205F5F5F5F77
S11341402F205F5F5F5F2F20205F200D0A0000009B
S1134150202020202F5F2F2F5F2F2F5F5F5F2F20C6
S1134160202F5F5F5F2F2020202F5F2F200D0A005C
S11341700D0A436F6D6D616E64733A0D0A000000A1
S1134180534554202D20536574732074686520634F
S11341906F756E74657220746F206120676976652F
S11341A06E2076616C7565203C20313032342028D5
S11341B0646563696D616C206F7220686578292E6F
S11341C00D0A000053544152542F434F554E54206E
S11341D02D205374617274732074686520636F7545
S11341E06E7465722E0D0A0053544F50202D2053C7
S11341F0746F70732074686520636F756E74657274
S11342002E0D0A005350454544202D2053657473E8
S11342102074686520636F756E74207370656564BF
S113422020286D7329206F66207468652062696E8A
S113423061727920636F756E7465720D0A000000F7
S11342403F0D0A0000000000000000000000000014
S1134250000000000000000000000000000000005A
S1134260000000000000000000000000000000004A
S1134270000000000000000000000000000000003A
S1134280000000000000000000000000000000002A
S1134290000000000000000000000000000000001A
S11342A0000000004300504F534958002E00232DB6
S11342B0302B2000686C4C0065666745464700302B
S11342C03132333435363738394142434445460078
S11342D03031323334353637383961626364656678
S11342E000002020202020202020202828282828E2
S11342F020202020202020202020202020202020BA
S11343002020881010101010101010101010101011
S11343101010040404040404040404041010101011
S113432010101041414141414101010101010101CC
S1134330010101010101010101010101011010103C
S1134340101010424242424242020202020202029F
S1134350020202020202020202020202021010100F
S11343601020000000000000000000000000000019
S11343700000000000000000000000000000000039
S11343800000000000000000000000000000000029
S11343900000000000000000000000000000000019
S11343A00000000000000000000000000000000009
S11343B000000000000000000000000000000000F9
S11343C000000000000000000000000000000000E9
S11343D000000000000000000000000000000000D9
S11343E000000000F8B5C046F8BC08BC9E46704703
S11343F0DD000000F8B5C046F8BC08BC9E46704716
S1074400B5000000FF
S1134404FF03000001010000FFFFFFFFC8000000DC
S113441400000000E52100002000002075000020B9
S11344241201000202000040EB0304240001000016
S11344340001090243000201008032090400000162
S113444402020000052400011005240101000424D3
S1134454020205240600010705820340000A090438
S11344640100020A000000070501024000000705DC
S113447481024000000000007C00002000000000D5
S11344846442000084420000444200000000000032
S11344940000000000000000000000000000000014
S11344A40000000000000000000000000000000004
S11344B400000000000000000000000000000000F4
S11344C400000000000000000000000000000000E4
S11344D40000000000000000000000004300000091
S11344E400000000000000000000000000000000C4
S11344F40000000000000000000000004300000071
S113450400000000000000000000000000000000A3
S11345140000000000000000000000004300000050
S11345240000000000000000000000000000000083
S11345340000000000000000000000004300000030
S11345440000000000000000000000000000000063
S11345540000000000000000000000004300000010
S11345640000000000000000000000000000000043
S113457400000000000000000000000043000000F0
S11345840000000000000000000000000000000023
S113459400000000000000000000000043000000D0
S11345A40000000000000000000000000000000003
S11345B4000000000000000000000000F53C0000C2
S11345C41536000000000000E1420000AC42000087
S11345D4B3420000B3420000B3420000B3420000FF
S11345E4B3420000B3420000B3420000B3420000EF
S11345F4B3420000FFFFFFFFFFFFFFFFFFFFFFFFCA
S1134604FFFF00000100415343494900000000003A
S11346140000000000000000000000000000000092
S11346240000000000004153434949000000000019
S11346340000000000000000000000000000000072
S10B464400000000000000006A
S9030000FC
